:100000000C9427080C9453080C9453080C94530830
:100010000C9453080C9453080C9453080C945308F4
:100020000C9453080C9453080C9453080C943F1BE5
:100030000C9453080C9453080C9453080C945308D4
:100040000C9453080C9453080C947E260C94B326FD
:100050000C9453080C9453080C9453080C945308B4
:100060000C9453080C9453086382536337030103C1
:1000700006FF00E30004FA0001000000010001088F
:1000800000060400014500008200004000204854A2
:1000900054502F312E3020353031204E6F7420498E
:1000A0006D706C656D656E7465640D0A436F6E747A
:1000B000656E742D547970653A20746578742F6874
:1000C000746D6C0D0A0D0A00485454502F312E30B7
:1000D0002035303020496E7465726E616C20536536
:1000E00072766572204572726F720D0A436F6E747C
:1000F000656E742D547970653A20746578742F6834
:10010000746D6C0D0A0D0A003C68323E4E5450204E
:10011000636F6E6669673C2F68323E3C612068728F
:1001200065663D2F3E4F4B3C2F613E003C68323EA2
:100130004E545020636F6E6669673C2F68323E3CB8
:100140006120687265663D2F3F70673D313E4572A4
:10015000726F723C2F613E00485454502F312E3044
:1001600020333032204D6F7665642054656D706F9A
:10017000726172696C790D0A4C6F636174696F6E9C
:100180003A202F0D0A0D0A00747A007374007570FE
:10019000006E74006D61002F637500696E007465F8
:1001A000006868002F6475007077002F7075000D6F
:1001B0000A000D0A0D0A00485454502F312E3020E9
:1001C000343034204E6F7420466F756E640D0A43D0
:1001D0006F6E74656E742D547970653A207465780D
:1001E000742F68746D6C0D0A0D0A00485454502F1A
:1001F000312E3020323030204F4B0D0A436F6E7459
:10020000656E742D547970653A20746578742F6327
:1002100073730D0A0D0A00626F6479207B0A096608
:100220006F6E742D66616D696C793A2061726961D7
:100230006C2C2073616E732D73657269663B0A7D49
:100240000A6832207B0A096261636B67726F756EA0
:10025000643A20233463616635303B0A0970616477
:1002600064696E673A203470783B0A09636F6C6F7B
:10027000723A20236666663B0A7D0A707265207BAF
:100280000A09626F726465723A2031707820736F68
:100290006C696420236464643B0A09706164646966
:1002A0006E673A203870783B0A7D0A646976207B55
:1002B0000A0977696474683A2035353070783B0AEA
:1002C00009626F726465723A2032707820736F6CC5
:1002D00069643B0A096D617267696E3A203130705A
:1002E00078206175746F3B0A0970616464696E6798
:1002F0003A2030203230707820313070782032301F
:1003000070783B0A7D0A61207B0A09746578742D38
:100310006465636F726174696F6E3A206E6F6E65AB
:100320003B0A7D0A613A686F766572207B0A097420
:100330006578742D6465636F726174696F6E3A20BD
:10034000756E6465726C696E653B0A7D0A0048547F
:1003500054502F312E3020323030204F4B0D0A4375
:100360006F6E74656E742D547970653A206170708B
:100370006C69636174696F6E2F782D6A6176617341
:1003800063726970740D0A0D0A0066756E63746994
:100390006F6E20747A6928297B0A0976617220645D
:1003A000203D206E6577204461746528293B0A0949
:1003B00076617220747A6F203D202D642E676574FB
:1003C00054696D657A6F6E654F666673657428292A
:1003D0003B0A097661722072656D203D20747A6F48
:1003E00020252036303B0A09766172206D696E2027
:1003F0003D2028223022202B2072656D292E736C1F
:10040000696365282D32293B0A0976617220686F7D
:100410007572203D2028223022202B2028747A6FEC
:10042000202D2072656D29202F203630292E736CE7
:10043000696365282D32293B0A097661722073743D
:10044000203D20686F7572202B20223A22202B201D
:100450006D696E3B0A0969662028747A6F203E2018
:100460003029207374203D20225554432B22202B09
:100470002073743B20656C7365207374203D2022CB
:1004800055544322202B2073743B0A09646F637513
:100490006D656E742E77726974652822205B496ED3
:1004A000666F3A20796F757220504320697320225D
:1004B0002B73742B225D22293B0A7D0A0048545479
:1004C000502F312E302034303120556E61757468D4
:1004D0006F72697A65640D0A436F6E74656E742D70
:1004E000547970653A20746578742F68746D6C0D5A
:1004F0000A5757572D41757468656E746963617446
:10050000653A204261736963207265616C6D3D4E8E
:10051000545020636C6F636B0D0A0D0A003C683207
:100520003E4E545020636F6E6669673C2F68323EC2
:100530003C6120687265663D2F3E41757468656E4A
:100540007469636174696F6E204661696C75726568
:100550003C2F613E003C68323E4E54502070617327
:1005600073776F72643C2F68323E3C7072653E3C1C
:10057000666F726D20616374696F6E3D2F707520B8
:100580006D6574686F643D706F73743E0A3C623EC3
:100590004E65772070617373776F72643A3C2F6297
:1005A0003E093C696E70757420747970653D7061A8
:1005B0007373776F7264206E616D653D70773E0A6C
:1005C0003C62723E3C696E70757420747970653D52
:1005D0007375626D69742076616C75653D617070CC
:1005E0006C793E203C696E70757420747970653D3D
:1005F000627574746F6E2076616C75653D63616EB3
:1006000063656C206F6E636C69636B3D2277696E06
:10061000646F772E6C6F636174696F6E3D272F274F
:10062000223E3C2F666F726D3E3C2F7072653E001D
:10063000417574686F72697A6174696F6E3A000A05
:100640003C2F7072653E3C6120687265663D2F3EAE
:10065000686F6D653C2F613E207C203C6120687294
:1006600065663D2F3F70673D343E72656672657307
:10067000683C2F613E005761746368646F67205364
:10068000797374656D0042726F776E2D6F7574208B
:100690000045787465726E616C2000506F776572EA
:1006A0002D6F6E00207365636F6E64730A3C623E4B
:1006B000526573657420726561736F6E3A3C2F6288
:1006C0003E0900206D696E757465732C20002068EA
:1006D0006F7572732C200020646179732C200020C8
:1006E0006D696E757465730A3C623E557074696D10
:1006F000653A3C2F623E0909000A3C623E4C656146
:1007000073652074696D653A3C2F623E0900207361
:1007100065636F6E64730A3C623E444843502073C5
:1007200065727665723A3C2F623E09000A3C623E71
:1007300055706461746520706572696F643A3C2F0E
:10074000623E09000A3C623E476174657761792028
:100750004D41433A3C2F623E09000A3C623E444E02
:1007600053204D41433A3C2F623E09000A3C623E11
:100770004E5450204D41433A3C2F623E09000A3C02
:10078000623E476174657761793A3C2F623E0900A9
:100790000A3C623E495020616464726573733A3C5E
:1007A0002F623E09000A3C623E4D41432061646471
:1007B000726573733A3C2F623E09003C68323E49D1
:1007C0006E666F3C2F68323E3C7072653E3C623E06
:1007D000454E4332384A3630205265763A3C2F62D5
:1007E0003E0942000A3C62723E3C696E707574209C
:1007F0006E616D653D706720747970653D686964F0
:1008000064656E2076616C75653D333E3C696E7043
:100810007574206E616D653D616320747970653D0E
:100820007375626D69742076616C75653D636C6586
:1008300061723E3C2F666F726D3E3C2F7072653E5A
:100840003C6120687265663D2F3E686F6D653C2F88
:10085000613E207C203C6120687265663D2F3F70C0
:10086000673D333E726566726573683C2F613E007A
:10087000202520204020000A3C623E4C6F776573A3
:10088000742048756D69646974793A3C2F623E0939
:1008900000202520204020000A3C623E486967680D
:1008A0006573742048756D69646974793A3C2F6288
:1008B0003E090020266465673B43204020000A3C37
:1008C000623E4C6F776573742054656D706572611C
:1008D000747572653A3C2F623E0900202664656794
:1008E0003B43204020003C623E4869676865737462
:1008F0002054656D70657261747572653A3C2F6243
:100900003E09003C68323E486973746F72793C2F2F
:1009100068323E3C7072653E3C666F726D2061636A
:1009200074696F6E3D2F206D6574686F643D6765F7
:10093000743E0A003C2F73656C6563743E0A3C622A
:10094000723E3C696E70757420747970653D737584
:10095000626D69742076616C75653D6170706C794B
:100960003E203C696E70757420747970653D6275C7
:1009700074746F6E2076616C75653D63616E63653E
:100980006C206F6E636C69636B3D2277696E646F78
:10099000772E6C6F636174696F6E3D272F27223E3F
:1009A0003C2F666F726D3E3C2F7072653E003C2F8F
:1009B0006F7074696F6E3E002073656C656374655B
:1009C00064003C6F7074696F6E2076616C75653D74
:1009D000003E54656D70657261747572650A3C62A3
:1009E0003E496E74656E736974793A3C2F623E09B4
:1009F0003C73656C656374206E616D653D696E3E28
:100A00000020636865636B6564003E323468203C97
:100A1000696E70757420747970653D636865636B89
:100A2000626F78206E616D653D7465002063686556
:100A3000636B6564003C68323E4E545020646973B9
:100A4000706C61793C2F68323E3C7072653E3C664A
:100A50006F726D20616374696F6E3D2F6475206DD8
:100A60006574686F643D706F73743E0A3C623E53F8
:100A7000686F773A3C2F623E09093C696E70757465
:100A800020747970653D636865636B626F78206E72
:100A9000616D653D6868003E4555204453540A3CED
:100AA00062723E3C696E70757420747970653D7336
:100AB00075626D69742076616C75653D6170706CEE
:100AC000793E203C696E70757420747970653D6262
:100AD0007574746F6E2076616C75653D63616E63CD
:100AE000656C206F6E636C69636B3D2277696E6421
:100AF0006F772E6C6F636174696F6E3D272F2722AD
:100B00003E3C2F666F726D3E3C2F7072653E00203A
:100B1000636865636B6564003E3C736372697074FF
:100B20003E747A6928293C2F7363726970743E0A97
:100B30003C623E4170706C793A3C2F623E09093C40
:100B4000696E70757420747970653D636865636B58
:100B5000626F78206E616D653D7374003E0A3C6281
:100B60003E555443206F66667365743A3C2F623E6F
:100B7000093C696E70757420747970653D74657890
:100B800074206E616D653D747A2076616C75653D8B
:100B9000003E0A3C623E4D414320616464726573CD
:100BA000733A3C2F623E093C696E7075742074790B
:100BB00070653D74657874206E616D653D6D612072
:100BC00076616C75653D003E0A3C623E557064611D
:100BD000746520706572696F643A3C2F623E093C0F
:100BE000696E70757420747970653D7465787420D1
:100BF0006E616D653D75702076616C75653D003C7C
:100C000068323E4E545020636F6E6669673C2F68B1
:100C1000323E3C7072653E3C666F726D206163745B
:100C2000696F6E3D2F6375206D6574686F643D70EC
:100C30006F73743E0A3C623E4E545020686F73746A
:100C40006E616D653A3C2F623E093C696E70757449
:100C500020747970653D74657874206E616D653DB2
:100C60006E742076616C75653D003C7363726970CB
:100C700074207372633D747A2E6A733E3C2F7363E3
:100C8000726970743E003C2F6469763E3C2F626F3F
:100C900064793E3C2F68746D6C3E003C2F68656142
:100CA000643E3C626F64793E3C6469763E003C2160
:100CB000444F43545950452068746D6C3E0A3C685B
:100CC000746D6C3E3C686561643E3C7469746C652F
:100CD0003E4E545020636C6F636B3C2F7469746C90
:100CE000653E3C6C696E6B2072656C3D7374796C0B
:100CF00065736865657420687265663D732E6373FD
:100D0000733E00485454502F312E30203230302062
:100D10004F4B0D0A436F6E74656E742D5479706578
:100D20003A20746578742F68746D6C0D0A50726186
:100D3000676D613A206E6F2D63616368650D0A0D02
:100D40000A0020250A3C2F7072653E3C61206872C3
:100D500065663D2F3F70673D313E636F6E66696724
:100D60003C2F613E207C203C6120687265663D2FEF
:100D70003F70673D323E646973706C61793C2F61EE
:100D80003E207C203C6120687265663D2F3F706785
:100D90003D333E686973746F72793C2F613E207CED
:100DA000203C6120687265663D2F3F70673D343E90
:100DB000696E666F3C2F613E207C203C612068722A
:100DC00065663D2F3F70673D353E70617373776F89
:100DD00072643C2F613E207C203C61206872656615
:100DE0003D2F3E726566726573683C2F613E002040
:100DF000266465673B430A3C623E48756D696469D9
:100E000074793A3C2F623E09000A3C623E54656D9B
:100E100070657261747572653A3C2F623E090020FC
:100E20005B4F4B5D00205B53796E63696E675D00BD
:100E30005D0A3C623E4C6173742073796E633A3C88
:100E40002F623E0900205B005D0A3C623E4E54501A
:100E5000207365727665723A3C2F623E09004F4BF3
:100E60000054696D656F7574004572726F72002071
:100E70005B00290A3C623E444E53207365727665DE
:100E8000723A3C2F623E09002028555443003C68CA
:100E9000323E4E545020636C6F636B3C2F68323E81
:100EA0003C7072653E3C623E54696D653A3C2F620F
:100EB0003E0909002F732E637373002F747A2E6A14
:100EC0007300706700616300706D2000616D200029
:100ED000274320000D0A0020697320617420002937
:100EE0000D0A002028555443000D0A00444E53209B
:100EF00049503A000D0A00476F742049503A000DDE
:100F00000A00454E4332384A363020526576204238
:100F10000049434D5020726571756573740D0A0068
:100F20000D0A005265706C79206C656E3D00504F63
:100F30005354200047455420004E54502072657190
:100F4000756573740D0A00444E53204572726F72BA
:100F50000D0A000D0A004E54502049503A00444EEC
:100F60005320726571756573740D0A0041525020EB
:100F7000726571756573740D0A0057616974444830
:100F80004350002020202020202020004C696E6B40
:100F900020646F776E0D0A004C696E6B2075700DC2
:100FA0000A00726562696E640D0A00626F756E6494
:100FB0000D0A00726571756573740D0A0073656CB6
:100FC0006563740D0A00696E69740D0A0044484334
:100FD0005020004E5450636C6F636B000D1008106E
:100FE0000310FE0FF90FF40FF00FEC0F3E33250046
:100FF0003E3725003E313025003E313725003E3258
:101000003725003E343025003E363025003E313055
:1010100030250053756E4D6F6E5475655765645479
:101020006875467269536174004A616E4665624D27
:1010300061724170724D61794A756E4A756C417585
:10104000675365704F63744E6F7644656300112477
:101050001FBECFEFD8E0DEBFCDBF84B78093BC0505
:1010600014BE0FB6F894A8958091600088618093B3
:101070006000109260000FBE11E0A0E0B1E0EAE471
:10108000F4E502C005900D92A235B107D9F725E02D
:10109000A2E5B1E001C01D92AC3BB207E1F70E94AE
:1010A000A41B0C94232A0C940000A0E0B0E0EBE514
:1010B000F8E00C94F6298C01EB01FC018481682F87
:1010C000660F680F8581582F550F580F9E0140E01D
:1010D000862F840F90E0A0E08D5E9F4EAF4FFC0105
:1010E0008491A7FD8081F90181939F01852F840F51
:1010F00090E0A0E0875D9F4EAF4FFC018491A7FD7B
:101100008081F90183834F5F433011F780E28F8341
:101110008B83BE01685F7F4FF801838140E2082E18
:10112000000C990B0E942109BE01655F7F4FF801F9
:1011300082814AE3082E000C990B0E942109BE010E
:10114000625F7F4FF80181814AE3082E000C990B02
:101150000E942109BE016F5E7F4FF801808140E24D
:10116000082E000C990B0E942109F80186819781B5
:1011700064E670E08459984F0E9444286B017C011A
:10118000BE016C5E7F4F40E2C6010E942109BE0194
:101190006A5E7F4F40E0C7010E942109CDB7DEB7EC
:1011A000E8E00C94122A621B730B840B950B0895D4
:1011B0006AEA75E00E94DF088AEA95E00895A4E0F3
:1011C000B0E0E5EEF8E00C94F6296C017B01E091CB
:1011D000BA05F091BB05309729F066EB75E00995EB
:1011E0008C0102C00FEF1FEFF60140815181628137
:1011F00073818091B6059091B705A091B805B09123
:10120000B905840F951FA61FB71F101611064CF4C1
:10121000A801012E000C660B770B840F951FA61FEB
:10122000B71F89839A83AB83BC83B701CE01019634
:101230000E947C09F701138702872496E8E00C944A
:10124000122A1F93CF93DF93EB01142F6AE070E013
:101250000E944428605D6883805D89831A83DF91E2
:10126000CF911F9108959093BB058093BA0508957F
:101270000FB6F8946093A6057093A7058093A80510
:101280009093A9050FBE08956093B6057093B705B6
:101290008093B8059093B9050895FC010FB6F894B2
:1012A0006091A6057091A7058091A8059091A90568
:1012B0000FBE309721F060837183828393830895FA
:1012C0008F938FB78F93F8948091A6058F5F80934B
:1012D000A6058091A7058F4F8093A7058091A8054B
:1012E0008F4F8093A8058091A9058F4F8093A90502
:1012F0008F918FBF8F910895A8E0B0E0E2E8F9E008
:101300000C94F6298B01FC016081718182819381AB
:1013100020E831E541E050E00E94582869017A0157
:101320002CE330E040E050E00E94CD2929833A834D
:101330004B835C8389819A81AB81BC81F801608396
:101340006CE370E00E944428DC01CB01F801A1832A
:101350008283C601069667E070E00E94812884833C
:101360002DEA3EE840E050E0C701B6010E94CD29D9
:1013700029833A836D837E838F83988789819A81BD
:1013800024E6289F6001299FD00C11246D817E8165
:101390008F81988525EB35E040E050E00E94CD2913
:1013A00029833A836D837E83E980FA80EE0CFF1CEB
:1013B000EE0CFF1CEC0CFD1C8D819E81F5E6EF16FA
:1013C000F10410F0019604C024E6E216F10419F0CD
:1013D00021E030E002C020E030E0A90144595E4F36
:1013E0004817590768F46DE671E0821B930B0E9461
:1013F0004428DC01CB01E80EF91ECD0120E030E0ED
:1014000044E6E40EF11CF801F782E68291878087BA
:10141000255C3F4F8217930748F46FE170E00E940C
:101420004428DC01CB01F801858322C069E970E022
:10143000821B930B0E944428DC01CB01F82EFF0C89
:10144000FF0CF80E6DE370E0CD010E944428DC0132
:10145000CB01E82EEE0C6FE170E0CD010E94442834
:10146000DC01CB0122E0280FF20EFE0CF801F58220
:10147000A383F8011386128683818F5F8383289666
:10148000E8E00C94122A8091540190915501A091AA
:101490005601B09157018F3F2FEF9207A207B20775
:1014A00059F00197A109B109809354019093550116
:1014B000A0935601B09357010895DF92EF92FF92E7
:1014C0000F931F93CF93DF9300D000D000D0CDB700
:1014D000DEB77C01D62E86E0ECE4F1E0DE01119669
:1014E00001900D928A95E1F78E010F5F1F4F23E463
:1014F00030E0A80164E470E0C7010E94F816F7012B
:101500007A9684E0DF011D928A95E9F781E0F70180
:1015100082A783A796E094A715A686A7D7A6D0AAE8
:10152000D1AAF29684E1DF011D928A95E9F7D701ED
:10153000AA5BBF4FBC9786E001900D928A95E1F7B8
:10154000F701E45BFF4F8AECDF011D928A95E9F712
:1015500044E050E068E670E0C7018A5E9E4F0E945A
:10156000D92826960FB6F894DEBF0FBECDBFDF9107
:10157000CF911F910F91FF90EF90DF900895CF933F
:10158000DF93EC010E945D0AFE01E65EFE4F85E3FB
:101590008083319681E080833196808347E050E0FC
:1015A0006CE670E0CE01835E9E4F0E94D92869EF01
:1015B00070E0CE010E94571780E0DF91CF9108952F
:1015C000CF93DF93DC016D3181E07807C8F1FD0135
:1015D000E55EFE4F80818823A9F190E09C01265EA4
:1015E0003E4F855E9E4F6817790770F13197808175
:1015F0008533E1F415C0ED01C20FD31F9B81992300
:1016000029F19A01290F311DC9010196681779073F
:10161000F8F0ED01C40FD51F8881853339F402C07D
:10162000ECE1F1E0EA0FFB1F808113C0A9014E5FDE
:101630005F4FF9013496E617F707E8F280E009C03A
:1016400080E007C080E005C080E003C080E001C00A
:1016500080E0DF91CF910895FC016F3F710581F02B
:1016600078F083A1833471F482A5823069F497A560
:1016700094130CC081E020A9291749F080E0089557
:1016800080E0089580E0089580E0089580E0089566
:10169000FC016F3F710539F030F081E096A5923082
:1016A00019F080E0089580E00895EF92FF920F9383
:1016B0001F93CF93DF93EC018B016D31714008F4E0
:1016C000C1C0FE01E55EFE4F7081772309F4BCC006
:1016D000472F50E0CA01855E9E4F0817190708F48E
:1016E000B5C00F2EFCE1EF2EFF24F394F02D2AE17C
:1016F00031E012C0F9013196CE018E0F9F1FDC013F
:101700007C91772309F4A4C0472F50E0E40FF51F24
:101710000E171F0708F49EC0FE01E20FF31F908111
:10172000933031F128F4992369F0913069F07CC04D
:10173000933309F442C0963309F464C0963009F03B
:1017400073C02AC0980170C0743009F06DC0D70111
:10175000AC0FBD1F8D919D910D90BC91A02D8093DC
:101760005D0190935E01A0935F01B09360015CC046
:10177000743009F059C0D701AC0FBD1F8D919D91F8
:101780000D90BC91A02D8093610190936201A09374
:101790006301B093640148C0D701AC0FBD1F8D91A8
:1017A0009D910D90BC91A02D809304019093050113
:1017B000A0930601B093070137C07430A9F580915A
:1017C000000190910101A0910201B0910301F90182
:1017D0003296EC0FFD1FB9016A5F7F4F6C0F7D1FC2
:1017E000F190BA2FA92F982F88278F29E617F7078E
:1017F000B9F78093000190930101A0930201B09387
:10180000030112C0743081F4D701AC0FBD1F8D915C
:101810009D910D90BC91A02D8093590190935A01F8
:10182000A0935B01B0935C014E5F5F4F240F351FA7
:101830007901B2E0EB0EF11CE016F10608F45ACF84
:1018400081E009C080E007C081E005C081E003C0FD
:1018500081E001C081E0DF91CF911F910F91FF9056
:10186000EF900895FC01DA018C91882379F0608370
:1018700084E081838D919C9111979383828312964A
:101880008D919C9113979583848386E008950F939F
:101890001F93CF93DF938C010E945D0AF801E65EEF
:1018A000FE4F85E38083319681E08083319683E02B
:1018B000808349E551E066E3C801835E9E4F0E9444
:1018C000320CC3E0C80F8C2F90E0865E9E4F45E639
:1018D00051E062E3800F911F0E94320C8C0FC82FE1
:1018E000D0E0CE01865E9E4F47E050E06CE670E0AF
:1018F000800F911F0E94D928BE016A507F4FC801F6
:101900000E94571780E0DF91CF911F910F910895AA
:1019100010925201809358010895EF92FF920F9315
:101920001F93CF93DF937C018B010E940812C82F75
:10193000882309F4CEC00115110509F057C0C091E4
:101940005201C1111AC081E08093520184E080935A
:10195000530184E090E0A0E0B0E0809354019093C4
:101960005501A0935601B09357010E94F611609162
:101970005801C7010E94BF0AACC08FEF8C0F8230A4
:1019800008F0A0C08091540190915501A09156019A
:10199000B0915701892B8A2B8B2B09F095C0609150
:1019A00058016F5F6093580180915301880F8093B5
:1019B0005301813220F010925201C0E08AC090E0C1
:1019C000A0E0B0E08093540190935501A09356019C
:1019D000B0935701C13029F4C7010E94BF0AC0E08B
:1019E00078C0C7010E94470CC0E073C0D091580175
:1019F0004D2FB801C7010E942C0BC82F882309F472
:101A000068C0B801C7010E94480B813009F45EC06C
:101A1000B801C7010E94E00A823079F58093520133
:101A200084E08093530184E090E0A0E0B0E08093F4
:101A3000540190935501A0935601B09357010F3F65
:101A4000110589F080F0F70182AD882361F082AD45
:101A500093ADA4ADB5AD8093650190936601A0935D
:101A60006701B0936801B801C7010E94550B6D2F43
:101A7000C7010E94470CC0E02CC08530E9F483E028
:101A800080935201109253018091000190910101C5
:101A9000A0910201B0910301B695A79597958795FE
:101AA0008093540190935501A0935601B093570130
:101AB0000E94FF11C1E00DC0863051F41092520116
:101AC000C0E007C0C0E005C0C0E003C0C0E001C086
:101AD000C0E08C2FDF91CF911F910F91FF90EF907D
:101AE0000895CF92DF92EF92FF92009769F0C09035
:101AF0006501D0906601E0906701F0906801FC01FB
:101B0000C082D182E282F3826115710569F0809111
:101B10005D0190915E01A0915F01B0916001FB01B8
:101B200080839183A283B3834115510569F080912D
:101B3000610190916201A0916301B0916401FA0189
:101B400080839183A283B3832115310569F080914D
:101B5000040190910501A0910601B0910701F901DE
:101B600080839183A283B383FF90EF90DF90CF9027
:101B700008950F931F93009769F0009159011091F8
:101B80005A0120915B0130915C01FC0100831183BB
:101B9000228333836115710569F080910001909172
:101BA0000101A0910201B0910301FB0180839183A7
:101BB000A283B383809152011F910F9108950F93D7
:101BC0001F93CF93DF939C0190915201933008F4BF
:101BD000A8C0EB018901209709F068C080915401E9
:101BE00090915501A0915601B0915701892B8A2BF4
:101BF0008B2B09F099C00E940812882309F497C022
:101C0000809158018F5F8093580184E08093520146
:101C10000E94F61160915801C8010E945D0A82E09D
:101C2000F80186A78091650190916601A0916701F6
:101C3000B0916801828F938FA48FB58F86AB97ABDD
:101C4000A0AFB1AFE65EFE4F85E38083319681E0C1
:101C50008083319683E0808363EF70E0C8010E9447
:101C600057178091000190910101A0910201B0915C
:101C70000301689412F8B695A795979587951694E1
:101C8000D1F78093540190935501A0935601B093DE
:101C90005701809153018F5F80935301843008F482
:101CA00049C01092520180E090E04FC0409158012D
:101CB000C9010E942C0B882309F43FC0BE01C80152
:101CC0000E94E00A853031F5BE01C8010E94480B30
:101CD0008823C9F183E080935201109253010E943E
:101CE000FF11BE01C8010E94550B80910001909127
:101CF0000101A0910201B0910301B695A7959795B6
:101D000087958093540190935501A0935601B09309
:101D1000570119C08630A1F41092520180E090E082
:101D200014C0862F972F11C080E090E00EC080E095
:101D300090E00BC080E090E008C08C2F9D2F05C084
:101D400080E090E002C080E090E0DF91CF911F91B1
:101D50000F910895CF92DF92EF92FF920F931F930E
:101D6000CF93DF9300D000D01F92CDB7DEB76C01C8
:101D7000DE01119695E0FD0111929A95E9F73C9AE2
:101D8000449AFFEF2FE382E0F15020408040E1F7DA
:101D900000C000004498A9E9B1E81197F1F700C02C
:101DA000449A3C98B2E6BA95F1F70000349959C0CC
:101DB000E4ECEA95F1F700C0349B55C0F4ECFA95D9
:101DC000F1F700C08E010F5F1F4F7E0126E0E20E8B
:101DD000F11CE1E0F0E026C02150310919F445C0C2
:101DE00029EC30E0349BF8CF8AE48A95F1F7349BF4
:101DF00008C09F01042E02C0220F331F0A94E2F78D
:101E0000922B29EC30E003C02150310981F1349943
:101E1000FBCF4150510920F7D8019D938D01EA165F
:101E2000FB0621F047E050E090E0DACF3C9A449A7C
:101E3000BFEFEFE3F2E0B150E040F040E1F700C067
:101E4000000029813B818A81820F830F9C81890F49
:101E50009D8189130EC0D6013C93FB01208380E055
:101E600009C08FEF07C08FEF05C08FEF03C08FEF62
:101E700001C08FEF0F900F900F900F900F90DF9198
:101E8000CF911F910F91FF90EF90DF90CF90089529
:101E90000E94AA0E0895009751F0DC01EFE6F1E0F0
:101EA00023E731E08D918193E217F307D9F7089585
:101EB00080916E010895809169010895EAE6F1E04C
:101EC000DC012EE631E081918D93E217F307D9F71B
:101ED0000895EF92FF920F931F93CF93DF93EC013E
:101EE0007B018A0110926E010E940812811105C0C7
:101EF00084E08093690181E069C01092690160917A
:101F000073016F5F6093730170E0706E25E330E0E2
:101F10004FE651E0CE010E94F816809173018BA725
:101F200081E08CA7FE01BD96CE01C6961192E817FE
:101F3000F907E1F781E08FA7F70190819923C1F0BC
:101F40002CE06DE09E3241F4DE01A20FB11D815004
:101F50009A968C93262F80E09191DE01A60FB11DF9
:101F60009A969C938F5F6F5F90819111EBCF03C026
:101F700081E02CE06DE0FE01E20FF11D815082A7AF
:101F8000FE01E60FF11D12A681E0860FFE01E80FAB
:101F9000F11D12A682E0860FFE01E80FF11D81E01F
:101FA00082A793E0960FFE01E90FF11D12A694E0BF
:101FB000960FFE01E90FF11D82A789EF860F8AA710
:101FC0006B5F70E0CE010E94571780E0DF91CF91E8
:101FD0001F910F91FF90EF900895FC0166347105F9
:101FE00008F472C083A1853309F070C084A1803EDB
:101FF00009F06EC085A19091730189136BC093A500
:1020000089136AC085A58F78803829F081E0809394
:10201000690180E0089592A5945F61537109DF0121
:10202000A90FB11D9A968C91807C71F09E5F11C0B2
:1020300081E0890FDF01A80FB11D9A962C91211123
:1020400002C09E5F06C0982F292F30E02617370761
:1020500078F3292F30E0DF01A20FB31F9B968C91FC
:10206000813099F088E0890FDF01A80FB11D9B96A0
:102070008C91965F980F292F30E02617370778F25A
:1020800083E08093690180E00895DF01A20FB31F10
:10209000D3962C91243029F082E08093690180E06E
:1020A0000895965FE90FF11D42A553A564A575A596
:1020B00040936A0150936B0160936C0170936D01C2
:1020C00091E090936E01089580E0089580E0089576
:1020D00080E0089580E0089580E008952A98962F82
:1020E0006F71862B8EBD0DB407FEFDCF1EBC0DB4E7
:1020F00007FEFDCF992324F41EBC0DB407FEFDCFCF
:102100002A9A8EB508952A986F71862B8EBD0DB4CC
:1021100007FEFDCF4EBD0DB407FEFDCF2A9A0895F0
:10212000FB012A982AE32EBD0DB407FEFDCF0097D0
:1021300069F0DF01A80FB91F1EBC0DB407FEFDCF6B
:102140009EB59193EA17FB07B9F701C0DF011C9216
:102150002A9A0895FB012A982AE72EBD0DB407FE9E
:10216000FDCF09C09F01280F391F91919EBD0DB46D
:1021700007FEFDCF03C00097A9F703C02E173F0746
:10218000A1F72A9A08951F93CF93DF93182F107603
:10219000C12FD0E08091760190E0C817D907B1F047
:1021A00043E06FE180EA0E948310AE0155954795A8
:1021B0005595479555954795559547955595479507
:1021C0006FE180E80E94831010937601DF91CF9138
:1021D0001F910895CF93C82F0E94C3106C2F80E0E9
:1021E0000E946E10CF910895CF93DF93C82FD62F02
:1021F0000E94C3104D2F6C2F80E40E948310DF914A
:10220000CF910895CF93682F84ED0E94F41061E080
:1022100082ED0E94F4108AEE0E94EA1080FDFBCF4E
:1022200060E082ED0E94F41089ED0E94EA10C82F50
:1022300088ED0E94EA102C2F30E0322F2227A901CE
:10224000482BCA01CF910895CF93DF93D62FC72F84
:10225000682F84ED0E94F4106D2F86ED0E94F4101B
:102260006C2F87ED0E94F41004C088E18A95F1F785
:1022700000C08AEE0E94EA1080FDF7CFDF91CF9177
:102280000895CF93DF93EC01229A2A9A84B1886251
:1022900084B924982B982D9880E58CBD8DB58160EC
:1022A0008DBD4FEF60E08FEF0E9483108FEF9FE8AE
:1022B0000197F1F700C000001092750110927401AF
:1022C00060E088E00E94F41060E089E00E94F41071
:1022D00060E08CE00E94F41060E08DE00E94F41059
:1022E0006FEF8AE00E94F41069E18BE00E94F41025
:1022F00060E084E00E94F4106AE185E00E94F4103E
:102300006FEF86E00E94F4106FE187E00E94F41006
:1023100060EB88E30E94F4106FE388E20E94F410FF
:1023200060E389E20E94F41069EF80E30E94F410F8
:1023300067EF81E30E94F4106DE080EC0E94F410DE
:1023400060E081EC0E94F41042E362EC80E80E94BD
:10235000831062E186EC0E94F4106CE087EC0E942E
:10236000F41062E184EC0E94F4106CED8AEC0E949F
:10237000F41065E08BEC0E94F410688184EE0E94FA
:10238000F410698185EE0E94F4106A8182EE0E9449
:10239000F4106B8183EE0E94F4106C8180EE0E9439
:1023A000F4106D8181EE0E94F41060E071E080E134
:1023B0000E9424118FE10E94C31040EC6BE180E881
:1023C0000E94831044E06FE180E80E94831066E77A
:1023D00074E084E10E942411DF91CF91089582E797
:1023E0000E94EA10863008F08F5F089588E30E940B
:1023F000EA10682F616088E30E94F410089588E372
:102400000E94EA10682F6E7F88E30E94F4100895FE
:1024100081E10E94021192FB882780F908950F93B1
:102420001F93CF93DF93EC018B016FE180E00E945B
:102430006E1083FDFACF8CE10E94EA1081FF15C077
:1024400040E86FE180E80E94831040E86FE180EA95
:102450000E94831042E06CE180EA0E9483108FEFBB
:1024600097E40197F1F700C0000060E082E00E946D
:10247000F4106AE183E00E94F4106C2F86E00E9461
:10248000F410CE01965E692F87E00E94F41040E0C0
:1024900060E08AE70E948310B801CE010E94AA1072
:1024A00048E06FE180E80E948310DF91CF911F9197
:1024B0000F910895AF92BF92CF92DF92EF92FF9269
:1024C0000F931F93CF93DF936C017B0189E30E94ED
:1024D000EA10882309F464C060917401C091750109
:1024E00080E00E94F4106C2F81E00E94F41060E004
:1024F0008AE30E946E10C82F60E08AE30E946E108B
:10250000D0E0D82BD0937501C093740160E08AE3CA
:102510000E946E10B82E60E08AE30E946E10A82E12
:1025200060E08AE30E946E10082F60E08AE30E9458
:102530006E1007FF11C081E0C81AD1080B2D10E002
:102540001A2904501109C016D10608F48601B701F2
:10255000C8010E94901002C000E010E07E0181E0FE
:10256000E81AF108E1148AE1F8064CF06FEF8CE00C
:102570000E94F41069E18DE00E94F41009C06C2FF4
:1025800061508CE00E94F4106F2D8DE00E94F410D9
:1025900040E46EE180E80E948310802F912F02C0FA
:1025A00080E090E0DF91CF911F910F91FF90EF902D
:1025B000DF90CF90BF90AF90089598B1987F98B971
:1025C00028B1982F92959F709770922B98B99BB1D4
:1025D000937C9BB99BB18F70880F880F892B8BB927
:1025E0000895CF93DF9390917701943010F037E006
:1025F00001C036E0439A95B19C7F95B925B1909181
:1026000077019370922B95B99091770191509770C3
:10261000909377019BB1C1E0D0E002C0CC0FDD1FE9
:102620003A95E2F72C2F209592239BB90E94DD1258
:102630008BB1C82BCBB9DF91CF91089543989BB153
:102640009F739BB9880F880F880F0E94DD128BB192
:10265000806C8BB90895CF93DF93EC018881882338
:1026600031F021960E94F11289918111FBCFDF9107
:10267000CF9108950F931F93CF93DF93FC01808137
:10268000882381F0662371F0D62F8F01C0E0CF5FE1
:102690000E94F112F801EC0FF11D8081882311F0E6
:1026A000DC13F5CFDF91CF911F910F910895CF9358
:1026B000DF93EC012196FC018491882339F00E947C
:1026C000F112FE01849121968111F9CFDF91CF9112
:1026D000089597E0981B90937701089584B18360E3
:1026E00084B987B18F6087B98AB18C6F8AB98BB191
:1026F000806C8BB987E0809377010895CF92DF9249
:10270000EF92FF92CF93DF93EC01DB01413061F454
:102710006B0188E0C81AD108E12CF12C81E1C80EC8
:10272000D11CE11CF11C11C0423061F46B0188E046
:10273000C81AD108E12CF12C86E0C80ED11CE11C8E
:10274000F11C03C0C12CD12C7601A230B105F0F0F0
:102750009D01FE01408150E060E070E0762F652F22
:10276000542F44278181482BC40ED51EE61EF71E28
:102770003296225031092230310560F7CD0102979F
:102780008E7F0296C80FD91FA170BB27AB2B61F0BB
:10279000888190E0A0E0B0E0BA2FA92F982F882779
:1027A000C80ED91EEA1EFB1EA70166277727411512
:1027B00051056105710571F0EE24FF24C40ED51E8C
:1027C000E61EF71EA701662777274115510561050B
:1027D000710591F7C60180959095DF91CF91FF909B
:1027E000EF90DF90CF900895009741F026E0FC0134
:1027F000A7E8B1E001900D922A95E1F708950097BE
:10280000C1F0DC01E3E8F1E027E831E08D9181934C
:10281000E217F307D9F76115710571F0DB01E9E003
:10282000F1E02DE031E08D918193E217F307D9F7C4
:1028300008956115710591F70895CF93DF93FC0119
:10284000308120918301232730910901232391F4C2
:102850003196C4E8D1E0AAE0B1E0AC014C5F5F4F33
:10286000819129919D918227892331F4E417F507FD
:10287000B9F703C081E001C081E0DF91CF910895F5
:1028800069327105C8F0FC0124852830B9F425852A
:102890002630B1F436A120918301321313C0B796CC
:1028A000A4E8B1E08A9631912D9132130DC0E8175A
:1028B000F907C9F781E0089580E0089580E0089560
:1028C00080E0089580E0089580E00895CF93DF933D
:1028D000FC016A327105E0F084858830D9F4858581
:1028E00081111AC096859534C1F4268D909183018B
:1028F000291313C0DF015F96C4E8D1E0B2962D9191
:10290000999129130AC0AE17BF07C9F781E005C026
:1029100080E003C080E001C080E0DF91CF910895A6
:10292000FC01A7E8B1E09C012A5F3F4F86818193BB
:102930008D918583E217F307C9F70895CF93DF934D
:10294000EC01188E198E80E48C8B1D8A8E8B40E0F2
:1029500064E170E0CE010E960E947E13988F898FFD
:10296000DF91CF910895AC01A3E8B1E0FC017A9624
:1029700027E831E0908194839D919193A217B3074A
:10298000C9F7CA010E949E140895FC01BA96869662
:102990002291620F711D24816483442311F02083EE
:1029A00001C01082672F7727E817F90789F7089584
:1029B000CF93DF93EC018CA19AA19CA38AA38DA154
:1029C0009BA19DA38BA3CE010E94C5141AAA1BAA8A
:1029D00080E58EA7DF91CF910895CF93DF93EC012F
:1029E0000E9490141C8A82E08D8BA7E8B1E0FE0162
:1029F00076962DE831E0808182878D918193A217B0
:102A0000B307C9F7A3E8B1E0FE017C9627E831E0FF
:102A1000808182878D918193A217B307C9F7BE0188
:102A20008AE290E00E940F12DF91CF9108950F93F8
:102A30001F93CF93DF93EC018B010E949014CE0182
:102A40000E94B3141AA28CA1883F18F09DA19F5F29
:102A50009DA3885F8CA3BE01C8010E940F12DF9165
:102A6000CF911F910F910895FC01208930E0322F02
:102A700022278189282B2451310986A582958F70C0
:102A8000A90164E0869F401951091124CA019923C4
:102A900014F480E090E008959A012F5F3F4FFA010F
:102AA0004491442369F0FB01F696DC01AE0FBF1F91
:102AB000F9014D936F5F7F4F449131964111F9CFEA
:102AC000CB010895222391F0A42FB52FAB014A5CCE
:102AD0005F4FFC01E40FF51F922F3D913193915010
:102AE000E1F72150620F711D6F5F7F4FCB01089599
:102AF000FA0101900020E9F731979F01241B350B63
:102B00000E9462150895FF920F931F93CF93DF9356
:102B1000EC018B01F42E0E9490148F2D80618FA701
:102B200084E0F81206C041E0B801CE010E94D8143A
:102B30000AC00115110511F401E010E041E0B801EF
:102B4000CE010E94D814188A88E2898BCE010E9497
:102B5000B31484E088AB19AA42E06CE170E0CE01C6
:102B60004A960E947E139AAB8BABBE0186E390E03F
:102B70000E940F12DF91CF911F910F91FF90089546
:102B80000F931F93CF93DF93EC018B01CB018896BA
:102B9000988B898BCE010E949E141AAA1BAAB80199
:102BA000645E7F4F42E0CE014A960E947E139AAB4C
:102BB0008BABBE01C801C6960E940F12DF91CF9168
:102BC0001F910F910895CF93DF93EC010E94901411
:102BD000188A8CE2898BCE010E94B31482E18FA700
:102BE00040E061E070E0CE010E94D8141EA21FA256
:102BF0008091100188A719A68D5F8093100182E053
:102C00008EAB84E08FAB85E088AF19AE80E68EA7EF
:102C10008AE088AB19AA42E060E270E0CE014A96F1
:102C20000E947E139AAB8BABBE018AE390E00E94B8
:102C30000F12DF91CF9108950F931F93CF93DF93DE
:102C4000EC018B01609178017091790140E00E9464
:102C5000831589E18FA7B801CE010E94C015DF91CD
:102C6000CF911F910F910895DC01FA016115710553
:102C700041F0680F791F84918D9331966A177B0715
:102C8000D1F70895DF92EF92FF920F931F93CF93A6
:102C9000DF93EC01062F172FF42ED22EE32E0E9485
:102CA0000812882309F468C08D2D9E2DBE01E7E827
:102CB000F1E04DE851E0DC012D91CD01DB012D93D8
:102CC000BD01219115962C93E417F507A1F788E033
:102CD0008C871D8645E850E069E070E0CE010E96D5
:102CE0000E943416809108018B8B8F5F80930801BE
:102CF0008CE4898B81E18F8B802F912FA3E8B1E049
:102D00008E01065E1F4FB80147E851E0FC0121919A
:102D1000CF01FB0124832D912193BF01A417B50797
:102D2000A9F7CE010E949E141CA28BE78DA38AE016
:102D30008AA3FBA21EA288E38FA318A619A6CE0120
:102D40008A96FC019E01265A3F4F1192E217F30723
:102D5000E1F743E750E06AE070E00E94341641E09A
:102D600060E470E0C8010E947E1398A789A7BE01A5
:102D70008AE590E00E940F12DF91CF911F910F9191
:102D8000FF90EF90DF900895CF93DF93FC014423F1
:102D900019F085A1481326C086A1811125C097A1ED
:102DA000983319F593A19B3701F5DF01AE5ABF4F58
:102DB0002C9111968C9190E0A0E0B0E0DC01992775
:102DC0008827B22BEF01CB5ADF4F2881822BEC5A98
:102DD000FF4F2081922BFB0180839183A283B383D9
:102DE00081E003C080E001C080E0DF91CF910895D1
:102DF0008F929F92AF92BF92CF92DF92EF92FF920B
:102E00000F931F93CF93DF934C01F62EE72EA42E42
:102E1000B52ED22EC32EDC01E7E8F1E02DE831E03B
:102E2000E80189918E018D93819115968C93159768
:102E3000E217F307A9F788E0F4018487158645E8CF
:102E400050E069E070E0C4010E960E943416809153
:102E50000801E4018B8B8F5F80930801188A81E160
:102E60008F8B8A2D9B2DA3E8B1E0F4017A9647E879
:102E700051E0EC012991CE0124832D912193A417D7
:102E8000B507B9F7F401C4A2D5A2E2A2F3A216A233
:102E900010A611A6DF91CF911F910F91FF90EF9097
:102EA000DF90CF90BF90AF909F908F9008950F9339
:102EB0001F93CF93DF93EC018B01CB014C96898B51
:102EC000988BCE010E949E14C80108968FA39EA3E2
:102ED000B801605F7F4F41E0CE014A960E947E13A9
:102EE00089A798A7BE01C8018A960E940F12DF9198
:102EF000CF911F910F910895CF92DF92EF92FF92A1
:102F00000F931F93CF93DF937C01809183018823DC
:102F1000D1F1D701C7E8D1E00DE811E0FE012FEFB4
:102F20002D93919115969C9315970E171F07C1F736
:102F3000D72EC62E88E0F701848786E085874DE787
:102F400050E068E070E0C7010E960E943416F70169
:102F500076968991819311860C171D07D1F7CC2D98
:102F6000DD2DA3E8B1E0F7017C9627E831E08991F7
:102F700082878D918193A217B307C9F7B7018AE2BF
:102F800090E00E940F12DF91CF911F910F91FF905F
:102F9000EF90DF90CF9008955093A5054093A4053E
:102FA00021E020937C0160937B01DC01EDE7F1E0FF
:102FB00021E831E08D918193E217F307D9F7089565
:102FC00090938201809381010895DF92EF92FF92A6
:102FD0000F931F93CF93DF938C01EB012097A9F5FB
:102FE00080917C01893079F480910E0190910F01DC
:102FF000892BF9F40E940812882329F06DE771E00B
:10300000C8010E947C1780917C01813091F40E945C
:103010000812882371F06DE771E0C8010E947C17E7
:1030200080917C01886080937C0110920F01109246
:103030000E0180910E0190910F01019690930F0166
:1030400080930E01E12CF12CB3C00E944014882320
:1030500069F1F8018589813019F4C8010E94ED14E5
:1030600080917C0183FF84C0F8018589823009F05A
:1030700082C044E050E06DE771E0C8014C960E94C8
:103080001529892B09F07AC0A8014A5E5F4FE091AB
:10309000A405F091A50560917B018DE791E009956C
:1030A00082E080937C01E12CF12C82C0BE01C8013A
:1030B0000E946614882309F464C0F801878981306E
:1030C000A1F482A1883009F05FC0E0918101F09104
:1030D0008201309719F0C8014A960995BE01C801CE
:1030E0000E941715E12CF12C63C0C633D10508F4FA
:1030F0004EC0863009F04EC0F80194A180917A014B
:1031000098134BC095A180910D01981349C0D7A485
:10311000D1FE06C0C8010E94E315E12CF12C48C085
:10312000D4FE41C0C8010E9434157C0190937901FE
:1031300080937801892B49F4D0FE3AC040E060E0EA
:1031400070E0C8010E94831533C0F801E6A4E6943C
:10315000E694E694E694F12CEE0CFF1CEE0CFF1CBA
:10316000F2E2EF0EF11C2897CE15DF05F8F020C033
:10317000E12CF12C1DC0E12CF12C1AC0E12CF12C1A
:1031800017C0E12CF12C14C0E12CF12C11C0E12C62
:10319000F12C0EC0E12CF12C0BC0E12CF12C08C05D
:1031A000E12CF12C05C0E12CF12C02C0E12CF12C1A
:1031B000C701DF91CF911F910F91FF90EF90DF90AA
:1031C0000895FC0180819181A281B381B23C20F0FD
:1031D0008058924AA149B44BBC01CD016059794A4B
:1031E0008D4E984D20E83AE349E050E00E9458287F
:1031F000DA01C901880F991FAA1FBB1F880F991FE9
:10320000AA1FBB1F880F991FAA1FBB1F821B930BEE
:10321000A40BB50BBC01CD01660F771F881F991F4A
:10322000660F771F881F991F25EB35E040E050E0BF
:103230000E9458286835734018F080E090E00895A7
:1032400080E19EE00895FC01DC01149680E011C04D
:10325000AB01022E02C0559547950A94E2F740FD56
:103260008F5F2F5F3F4F2830310591F7EA17FB073B
:1032700029F0619170E020E030E0EACF089581E12B
:103280009FE00E9422270895EF92FF920F93CF9321
:10329000C62F7A010AE02EE244E0BC018BED94E0F7
:1032A0000E94F6278BED94E00E94132787ED9EE0A5
:1032B0000E94222700E12AE346E0B7018BED94E06B
:1032C0000E94F6278BED94E00E94132784ED9EE088
:1032D0000E942227C13071F486E0F701A5E0B5E035
:1032E00001900D928A95E1F71092D20481E08093CB
:1032F000FE040FC0C23069F486E0F701AFEFB4E01E
:1033000001900D928A95E1F71092D20481E08093AA
:10331000FD04CF910F91FF90EF90089543E05DE0A1
:1033200060E070E083EA91E00E944C150895CF932D
:10333000DF93EB014EEA5CE0BC0183EA91E00E947E
:103340004C15209731F0AE01BC0183EA91E00E9458
:103350004C154BE95CE0BC0183EA91E00E944C15FE
:10336000DF91CF91089546E85CE0BC0183EA91E0EB
:103370000E944C1508954DEB54E060E070E083EA44
:1033800091E00E944C1560E070E00E9497194DE1B9
:1033900055E0BC0183EA91E00E944C150E94B319EC
:1033A0000895EF92FF920F93CF93DF937B01BC01BF
:1033B00083EA91E00E944C15EC010AE02EE244E021
:1033C000B7018BED94E00E94F6274BED54E0BE016F
:1033D00083EA91E00E947815DF91CF910F91FF90E1
:1033E000EF9008950F931F93CF93DF938B01BC0150
:1033F00083EA91E00E944C15EC01C8010E94D808B4
:103400006BED74E00E9455084BED54E0BE0183EA79
:1034100091E00E947815DF91CF911F910F9108954F
:10342000EF92FF920F93CF93DF937B01BC0183EA6E
:1034300091E00E944C15EC0100E12AE346E0B7015F
:103440008BED94E00E94F6274BED54E0BE0183EA39
:1034500091E00E947815DF91CF910F91FF90EF904E
:1034600008950F931F93CF93DF938B01BC0183EAE1
:1034700091E00E944C15EC014AE06BED74E0C8014C
:103480000E9468294BED54E0BE0183EA91E00E945E
:103490007815DF91CF911F910F9108950F931F938E
:1034A000CF93DF938C01CB01EA014AE06BED74E02E
:1034B0000E9468294BED54E0B80183EA91E00E9434
:1034C0007815AE01BC0183EA91E00E944C15DF91B2
:1034D000CF911F910F910895AF92BF92CF92DF923B
:1034E000EF92FF920F931F93CF93DF9300D000D002
:1034F000CDB7DEB760E376E00E94FB28009709F4C1
:103500007BC07C0125E1E20EF11C6701A7018E0161
:103510000B5F1F4F0F2EFFE3AF2EF02D0F2EFEE39C
:10352000BF2EF02D46C09D912FEB290F2A3110F4AC
:10353000208319C08FE9890F8A3118F4975490833A
:1035400012C080ED890F8A3018F49C5F90830BC005
:103550009B3211F4B08207C09F3211F4A08203C0E5
:103560009D3309F410823196E017F107E1F64C5FC4
:103570005F4F2A818981880F880F922F92959F70C3
:10358000892BFB0180838B81F0E12F9F9001112417
:10359000982F96959695292BFB012183F0E48F9F18
:1035A000C00111249C81892BFB018283F3E0CF0EA3
:1035B000D11CB601FA0101900020E9F73197E41B14
:1035C000F50B349720F0DA01FE013196ACCFF6010D
:1035D00010826AE370E0C7010E942229FC01119267
:1035E00040E150E0BF0189E191E00E942D2921E0F6
:1035F000892B19F020E001C020E0822F0F900F905E
:103600000F900F90DF91CF911F910F91FF90EF904E
:10361000DF90CF90BF90AF900895FC01962F643655
:1036200058F46A3018F480E3808331964AE0BF0191
:10363000892F90E00E94552908951F93CF93DF931F
:10364000EB01992334F42DE228839195819591091A
:1036500002C02BE228836CE370E00E944428182FFC
:10366000CE0101960E940D1B8AE38B83612FCE0150
:1036700004960E940D1BDF91CF911F9108951F9218
:103680000F920FB60F9211242F933F934F935F9396
:103690006F937F938F939F93AF93BF93EF93FF931A
:1036A0000E9460090E94430A8091D0048F5F80933A
:1036B000D0048091D0048C3338F01092D0048091E3
:1036C000CF048F5F8093CF048091CF048C3338F088
:1036D0001092CF048091CE048F5F8093CE048091AE
:1036E000CE04883158F01092CE048091CC04909191
:1036F000CD0401969093CD048093CC048091D204A4
:10370000882329F08091D20481508093D204809143
:10371000D104882329F08091D10481508093D10471
:1037200081E08093D304FF91EF91BF91AF919F917E
:103730008F917F916F915F914F913F912F910F905A
:103740000FBE0F901F901895CF93DF93CDB7DEB7C4
:103750002F970FB6F894DEBF0FBECDBF8EE390E07B
:103760000E94A229853571F544E050E06AE370E0DB
:103770008BE195E00E94922988E290E00E94A229C4
:103780008093430185E290E00E94AA29909345012D
:103790008093440149E150E06CE070E08AE291E0FE
:1037A0000E94922946E050E066E070E086E491E0F5
:1037B0000E94922981E090E00E94AA29909318012A
:1037C0008093170185E090E00E94A2298A3A91F443
:1037D00087E290E00E94A2298093150184E090E0A6
:1037E0000E94A2298093130183E090E00E94A22905
:1037F0008093140180E090E00E94A229833351F469
:1038000041E150E069E270E089E191E00E94922993
:10381000109229018FE290E00E94DF260E946E1331
:10382000809114010E941E1383ED9FE00E945713A4
:1038300086E491E00E9441110E94EF114AE06BED95
:1038400074E090E00E94552982E09FE00E942227C8
:103850008BED94E00E9413278FEF9EE00E942227B9
:1038600086E491E00E94F41380914301882321F0C3
:1038700081EE98E10E9433098FE399E10E94E017FD
:103880001092850010928400109280008DE0809349
:1038900081008CE1809389008FE18093880082E031
:1038A00080936F009CE088E10FB6F894A895809310
:1038B00060000FBE909360007894912C1A86198650
:1038C000312C212C1B86512C0F2EFBECCF2EF4E03B
:1038D000DF2EF02D0F2EFBEDEF2EF4E0FF2EF02D5E
:1038E00044244394EE86FF8603C0982C01C0982C94
:1038F00063EA71E088E293E00E945A128C01F601BB
:10390000108280911601813009F059C0B80183EA14
:1039100091E00E948D0C882309F451C0F2E0F093ED
:10392000160127E135E04FE055E06BE075E083E1FB
:1039300095E00E94710D87E195E00E944B0F6BE0CE
:1039400075E083E195E00E94FF130AE02EE244E077
:1039500063E175E0C7010E94F62787EF9EE00E94B1
:103960002227C7010E9413278FE20E94FA268BE0CC
:1039700095E00E9423194AE0B70190E00E94552982
:10398000C7010E94132784EF9EE00E9422272EE2A7
:1039900044E067E175E0C7010E94F6278CEE9EE0E7
:1039A0000E942227C7010E94132789EE9EE00E94F1
:1039B00022270F2EFEE13F2EF02D212C99CFB801AA
:1039C00083EA91E00E94DF0D5C0160E070E080E03E
:1039D00090E00E94B90D882E9816C9F18DEC9FE0F9
:1039E0000E94222760E070E080E090E00E94B90D24
:1039F000882E22E08217E9F0281730F0882359F04A
:103A000081E0881689F023C093E08917B9F0E4E0DB
:103A10008E17C9F01CC086EC9FE00E9422271092EE
:103A200016011092D20413C08DEB9FE00E94222752
:103A30000EC083EB9FE00E94222709C08BEA9FE023
:103A40000E94222704C082EA9FE00E942227B5013B
:103A500083EA91E00E94E5179093A2018093A1016F
:103A6000009709F0F7C2A114B10409F461C0B501CF
:103A700083EA91E00E94ED0FB50183EA91E00E9494
:103A80006614882309F431CF4091DA0464ED74E0C0
:103A900083EA91E00E94C416882309F428CF10928B
:103AA000D3048091D4049091D504A091D604B09110
:103AB000D704BC01CD01725C87419C4B6093D40458
:103AC0007093D5048093D6049093D7040E9438094C
:103AD000A0914401B09145012CE330E00E947A2886
:103AE0000E944409CE0101960E944D09CE01019623
:103AF0000E94D808B7010E945508C7010E941327E9
:103B000083EE9EE00E942227B701809144019091AC
:103B100045010E941D1BC7010E9413278FED9EE0E7
:103B20000E9422274092D9041092D804982CE0CE0B
:103B30000E9408125816A1F00E940812582E8823DD
:103B400049F088E99FE00E94222710921601109206
:103B5000D20407C08CE89FE00E942227312C2AC0A3
:103B6000582E332039F18091D304882319F13A94E7
:103B70001092D3040AE02EE244E063E175E0C7014D
:103B80000E94F627F70101900020E9F731978F0195
:103B90000B5D144063E87FE0C7010E94E228822D9C
:103BA00090E068E085529B4F0E943A1323942012C4
:103BB00001C0212C8091D10481113DC08AE0809305
:103BC000D1046FE971E080EA91E00E94480F809192
:103BD000D904882381F18091A00190918E019817DA
:103BE00034F480938E0187E991E00E944D09809121
:103BF000A00190911201891734F4809312018BE98E
:103C000091E00E944D0980919F0190918D0198173C
:103C100034F480938D018FE891E00E944D098091EA
:103C20009F0190911101891734F48093110183E968
:103C300091E00E944D0980911601811121C080916F
:103C4000D2048111DBC0552009F4DAC0409216017C
:103C50001092FE041092FD048AE79FE00E94571321
:103C6000E3E1F5E0108211821282138260E070E0DD
:103C7000CF010E94FF1380914B010E94880C812C80
:103C800080911601823009F055C08091D2048111D3
:103C90000C9474268091FD04882321F08091FE0409
:103CA000811142C08CE69FE00E9422278091FD0492
:103CB000811111C087E195E00E941D14811103C09C
:103CC00087E195E002C08FE095E044E459E162E0CD
:103CD0000E94CC17EDC78091FE0481111FC08BE1BB
:103CE00095E00E941D14811103C08BE195E002C094
:103CF0008FE095E044E459E1642D0E94CC17D8C7C9
:103D0000109216011092D2048091FD048111DEC739
:103D10001986EAC78091FD04882361F08091FE0432
:103D2000882341F001C0198683E080931601109228
:103D3000D20409C080911601833009F063C08091DC
:103D4000FC04811111C085E08093D2044092FC04F0
:103D50008EE59FE00E94222745E055E06AE271E08F
:103D600083EA91E00E94690F8091FC04813041F563
:103D70000E94580F882321F1F2E0F093FC048BE1BC
:103D800095E00E945E0F0AE02EE244E06BE175E0F0
:103D9000C7010E94F62786E59FE00E942227C701FF
:103DA0000E94132783E59FE00E94222784E08093EE
:103DB00016018091FC04823009F08FC7982C2DC029
:103DC0008091FC04823001F18091D20481111EC0E7
:103DD0001092FC040E945B0F882321F087E49FE08F
:103DE0000E9422272A852F5F2A87263089F4109285
:103DF00016011092D204982C1A8657C7982C09C025
:103E0000982C07C0982C05C0982C03C0982C01C092
:103E1000982C80911601843061F480914B0180933D
:103E2000DA041092D2041092D90485E0809316012E
:103E30000AC080911601853009F037C78091D904F6
:103E4000813009F43FC78091D204811128C05520E8
:103E500031F18091D8048630E0F485E08093D2047B
:103E60008091DA048F5F8093DA0489E39FE00E94F7
:103E7000222725E035E04091DA046BE175E083EA22
:103E800091E00E9442168091D8048F5F8093D804FD
:103E900006C01092D804109216011092D20431106C
:103EA00004C78091D904882309F4FFC68091D30404
:103EB000882309F4F7C61092D3048B858F5F8B8714
:103EC000863038F180911301882319F180E00E9437
:103ED00069138091A0014AE0B701082E000C990BEC
:103EE0000E945529C7010E942B1380ED9EE00E947D
:103EF000571380919F014AE0B701082E000C990BDF
:103F00000E945529C7010E942B1385E20E94F112DD
:103F10009AC0CE0101960E944D09CE0101960E94E1
:103F2000D8088C0180E00E946913F8018281909189
:103F30001501911103C08D3008F08C504AE0B70193
:103F400090E00E945529F70101900020E9F7ED5D0E
:103F5000F44019F480E30E94F112C7010E942B1370
:103F600080911501811108C0F801808180FF04C093
:103F700080E20E94F11203C08AE30E94F112F8016C
:103F800081814AE0B701082E000C990B0E94552947
:103F9000F70101900020E9F7ED5DF44019F480E3AA
:103FA0000E94F112C7010E942B138091150181110B
:103FB0000EC0F80182818C302CF48CEC9EE00E94C3
:103FC00057131EC088EC9EE00E94571319C08AE365
:103FD0000E94F112F80180814AE0B701082E000C1E
:103FE000990B0E945529F70101900020E9F7ED5D3A
:103FF000F44019F480E30E94F112C7010E942B13D0
:104000002091D4043091D5044091D6045091D70426
:1040100069817A818B819C810E94D308209117014C
:1040200030911801890120E030E0061717072807B2
:1040300039074CF48091D904813029F482E08093CF
:10404000D9041092D8049B859A3008F42DC6312CDF
:104050001B862BC68C010D551E4F08C00E94FA26E8
:104060000F5F1F4FF50180818A3029F05801F80158
:1040700080818111F3CF0091A1011091A201C801AB
:104080008D559E4F5C0144E050E064E37FE00E9468
:10409000ED28892B09F0ABC309551E4FF80180812B
:1040A0008F3209F05DC38181803209F0A1C00E9486
:1040B0008E1960E070E00E9497198C01CE01019684
:1040C0000E944D094EE85EE0BE016F5F7F4FC80160
:1040D0000E94F21948E85EE0BC0183EA91E00E9488
:1040E0004C158C01B70180914401909145010E94CB
:1040F0001D1BA701B80183EA91E00E94781542E7F1
:104100005EE067E175E00E94D1194FE65EE0BC0118
:1041100083EA91E00E944C158C010E945B0F88237A
:1041200041F049E65EE0B80183EA91E00E944C1557
:1041300013C00E94580F811108C041E65EE0B8012B
:1041400083EA91E00E944C1507C04EE55EE0B8019D
:1041500083EA91E00E944C1548E45EE0BC0183EAEA
:1041600091E00E944C154AE251E0BC0183EA91E0E3
:104170000E94781545E45EE06BE175E00E94D1197C
:1041800040E35EE064ED74E00E94F219BC018091AE
:10419000D904813039F045E25EE083EA91E00E9483
:1041A0004C1506C04FE15EE083EA91E00E944C1599
:1041B0006091A001062E000C770B49E05EE00E94A2
:1041C000311A60919F01062E000C770B4FEE5DE0D7
:1041D0000E94311A42E45DE0BC0183EA91E00E9452
:1041E0004C150E94B3199093A2018093A1013DC583
:1041F0008F3309F0B5C225EC3EE040E2B701C801BB
:104200000E943427882349F110928F011092900167
:1042100010929101109292011092930110929401C8
:1042200010929501109296011092970110929801A8
:104230001092990110929A0110929B0110929C0188
:1042400010929D0110929E01FFE7F0931201F093EE
:10425000110110928E0110928D0122EC3EE040E29D
:10426000B701C8010E943427882309F479C2C70125
:104270000E94BB27C7010E94A4288330910509F43E
:10428000F6C03CF48130910561F0029709F46DC0ED
:1042900067C28430910509F441C1059709F440C211
:1042A0005FC2C8010E946C1A882309F457C00E949B
:1042B0008E196AE67CE00E9497194FEF5BE0BC0123
:1042C00083EA91E00E944C154AE251E0BC0183EA86
:1042D00091E00E947815609117017091180147ECE8
:1042E0005BE00E94311A41E95BE066E471E00E9404
:1042F000101A4CE55BE0BC0183EA91E00E944C158A
:104300008C01B70180914401909145010E941D1BD1
:10431000A701B80183EA91E00E94781548E15BE0CB
:10432000BC0183EA91E00E944C15209143012223B5
:1043300039F04FE05BE0BC0183EA91E00E944C154C
:1043400047E95AE0BC0183EA91E00E944C150E94C3
:10435000B3199093A2018093A10187C40E94BB1955
:104360009093A2018093A10180C40E948E1960E005
:1043700070E00E94971945E35AE0BC0183EA91E09E
:104380000E944C1520911501222339F04CE25AE08D
:10439000BC0183EA91E00E944C154AE05AE0BC015E
:1043A00083EA91E00E944C1520911301222339F0F9
:1043B00041E05AE0BC0183EA91E00E944C1541EDD6
:1043C00059E0BC0183EA91E00E944C150F2EFCEDF0
:1043D000AF2EFFE0BF2EF02D912C192D42EC59E0AD
:1043E000BC0183EA91E00E944C1520E3210FF70104
:1043F000208311824E855F85BC0183EA91E00E9493
:1044000078153C0180911401811308C048EB59E0F4
:10441000B30183EA91E00E944C153C0142E050E078
:10442000B501CE0101960E94D92849815A81B30174
:1044300083EA91E00E944C154EEA59E0BC0183EA00
:1044400091E00E944C151F5FF2E0AF0EB11C1830D6
:1044500029F644E359E0BC0183EA91E00E944C153F
:104460000E94B3199093A2018093A101FEC30E9400
:104470008E1960E070E00E94971943E059E0BC019A
:1044800083EA91E00E944C1560918E01062E000C8B
:10449000770B46EE58E00E94311A4BED58E067E981
:1044A00071E00E94F21960911201062E000C770B48
:1044B0004EEB58E00E94311A43EB58E06BE971E093
:1044C0000E94F21960918D01062E000C770B48E9CD
:1044D00058E00E94311A41E958E06FE871E00E940B
:1044E000F21960911101062E000C770B47E758E096
:1044F0000E94311A40E758E063E971E00E94F21926
:1045000044EE57E0BC0183EA91E00E944C150E9402
:10451000B3199093A2018093A101A7C30E948E19A1
:1045200060E070E00E9497198C010E94EF11682FE3
:1045300070E04BEB57E0C8010E94311A45EA57E0A2
:1045400066E471E00E94101A40E957E063E175E00B
:104550000E94D1198C012FE2F70120838BE095E0B6
:104560000E9423194AE06CED74E090E00E94552906
:10457000A701B80183EA91E00E9478154EE757E061
:104580006FE075E00E94D1198C018BE195E00E94EB
:104590001D1481110FC04CE657E065E075E0C801BD
:1045A0000E94101A8C0187E195E00E941D14811170
:1045B00014C09CC387E195E00E941D14811112C0B4
:1045C0004AE557E06FEF74E0C8010E94101A8C01B1
:1045D00085E095E0682F792F09C0EFEFF4E06E2FAA
:1045E0007F2F04C08FEF94E0682F792F44E457E0C9
:1045F000C8010E94101A60911701709118014CE2D5
:1046000057E00E94311A8C01BE016F5F7F4FCE01CF
:1046100005960E94B90D4EE057E0BE016B5F7F4FDB
:10462000C8010E94D1198C0169817A818B819C819A
:104630002CE330E040E050E00E945828CA01B90164
:1046400049EF56E0C8010E94311A4FED56E0BC0117
:1046500083EA91E00E944C152091CC043091CD0466
:10466000232B41F06091CC047091CD0447ED56E0CE
:104670000E944E1A2091CE04222339F06091CE047C
:1046800070E04EEC56E00E944E1A2091CF04222397
:1046900039F06091CF0470E043EC56E00E944E1A6E
:1046A0006091D00470E044EA56E00E944E1A2091D6
:1046B000BC0520FF08C04BE956E0BC0183EA91E04D
:1046C0000E944C151FC021FF07C041E956E0BC0104
:1046D00083EA91E00E944C152091BC0522FF07C09F
:1046E00046E856E0BC0183EA91E00E944C15209117
:1046F000BC0523FF07C046E756E0BC0183EA91E012
:104700000E944C154FE356E0BC0183EA91E00E9401
:104710004C150E94B3199093A2018093A101A5C2E8
:10472000C8010E946C1A8823A1F00E948E1960E0D3
:1047300070E00E94971945E555E0BC0183EA91E0DD
:104740000E944C150E94B3199093A2018093A1017D
:104750008CC20E94BB199093A2018093A10185C2D3
:1047600046E050E06BEB7EE0C8010E94ED28892B0B
:10477000A1F44EE453E060E070E083EA91E00E942F
:104780004C154AE853E0BC0183EA91E00E944C15C5
:104790009093A2018093A10168C246E050E064EBCF
:1047A0007EE0C8010E94ED28892BA1F44BEE51E078
:1047B00060E070E083EA91E00E944C1547E152E02E
:1047C000BC0183EA91E00E944C159093A201809372
:1047D000A1014BC247EB51E060E070E083EA91E059
:1047E0000E944C159093A2018093A1013EC245E026
:1047F00050E06EE27FE0C5010E94ED28892B09F0B0
:1048000028C208551E4F62EB71E0C8010E94FB28C8
:10481000009709F411C23C01E4E06E0E711CC30163
:104820000E9413278FEA91E00E94222743E050E084
:104830006BEA71E0C8010E94ED28892B79F528EA1E
:1048400031E040E2B701C3010E943427882331F1EF
:10485000C7010E94BB2740E150E0B70189E191E028
:104860000E943B291092290163E380E090E00E94BE
:10487000BA2941E150E069E270E089E191E00E94EB
:10488000B02948E551E060E070E083EA91E00E94E1
:104890004C159093A2018093A101E7C143E050E041
:1048A00064EA71E0C8010E94ED28892B09F04FC02D
:1048B0001092150121EA31E040E2B701C3010E94E4
:1048C0003427811140921501109213012EE931E035
:1048D00040E2B701C3010E943427811140921301C5
:1048E0002BE931E040E2B701C3010E94342788235D
:1048F00051F0C7010E94BB27C7010E94A4288093E2
:1049000014010E941E136AEA85E090E00E94BA2911
:104910006091150187E290E00E94BA29609113012D
:1049200084E090E00E94BA296091140183E090E055
:104930000E94BA2948E551E060E070E083EA91E026
:104940000E944C159093A2018093A1018EC143E077
:1049500050E067E971E0C8010E94ED28892B09F059
:104960006BC124E931E040E2B701C3010E94342762
:10497000882309F45CC0C7010E94BB27E6E4F1E08C
:10498000108211821282138214821582F701008133
:10499000002309F442C0912C5701FD86EC8610E0FB
:1049A000C8010E94C528892B49F1C8010E94D1285D
:1049B0008A3308F087500F2EF0EDFF2EF02DF80E01
:1049C00085010F5F1F4FF501A180B12CC5010E9429
:1049D000C528892B61F0C5010E94D1288A3308F0CF
:1049E00087509F2D9295907F8053F82EF92AE92DBC
:1049F000F0E0EA5BFE4FF082939401C0850158011C
:104A0000FFEFAF1ABF0AF8010181002341F0F5E082
:104A1000F91528F6EC84FD8404C0912C02C0EC84C6
:104A2000FD84142D26E0921203C010E001C010E0B6
:104A300021E931E040E2B701C3010E943427882315
:104A4000B1F0C7010E94BB2748E150E0B7018AE2FC
:104A500091E00E943B2910924201F7010190002051
:104A6000E9F73197EB5DF440799708F0142D2EE8C3
:104A700031E040E2B701C3010E943427882351F09E
:104A8000C7010E94BB27C7010E94A4289093180168
:104A9000809317011092430180E090E00E94330957
:104AA0002BE831E040E2B701C3010E94342788239C
:104AB00031F04092430181EE98E10E94330928E8E9
:104AC00031E040E2B701C3010E943427882381F11D
:104AD000C7010E94BB27C7010E94A428082F6AE3D0
:104AE00070E0C7010E942229009731F0FC01119269
:104AF000CF010E94A42801C080E02CE30203D00172
:104B0000112400231CF4A81BB10902C0A80FB11D79
:104B1000CD0180539D4F8931964060F4B09345019B
:104B2000A09344012CE330E00E947A280E944409BB
:104B30001123A1F00E948E1960E070E00E94971985
:104B40004CE251E0BC0183EA91E00E944C150E94C6
:104B5000B3199093A2018093A10187C065E58EE30C
:104B600090E00E94BA2944E050E06AE370E08BE1F3
:104B700095E00E94B0296091430188E290E00E9494
:104B8000BA29609144017091450185E290E00E944C
:104B9000C82949E150E06CE070E08AE291E00E94AF
:104BA000B02946E050E066E070E086E491E00E94C3
:104BB000B029609117017091180181E090E00E9486
:104BC000C8290E948E1960E070E00E94971948E0A1
:104BD00051E0BC0183EA91E00E944C150E94B31998
:104BE0009093A2018093A101109216011092D20419
:104BF00006E411E0F801608184EE0E94F410F801EF
:104C0000618185EE0E94F410F801628182EE0E94BB
:104C1000F410F801638183EE0E94F410F8016481BE
:104C200080EE0E94F410F801658181EE0E94F4107C
:104C3000C8010E94F41319C048EC50E060E070E035
:104C400083EA91E00E944C159093A2018093A10108
:104C50000CC04EE850E060E070E083EA91E00E9412
:104C60004C159093A2018093A10183E29FE00E94E2
:104C700022274AE0B7018091A1019091A2010E94F0
:104C80005529C7010E94132780E29FE00E94222736
:104C90006091A1017091A20183EA91E00E941C162B
:104CA000982C03C0312C01C0312CA8950C94781C91
:104CB000F2E0F093D20429852F5F29872F3009F085
:104CC00029C81EC8332009F4F1C8EFCF8091FE0433
:104CD000811129C8982C19869CC88091D2048823F8
:104CE00009F476C8982C99C8982CA3C84AE557E0CF
:104CF0006FEF74E0C8010E94101A7DCC1F920F92D2
:104D00000FB60F9211242F933F934F935F938F937E
:104D10009F93EF93FF932091C0003091C6002871BC
:104D20008091210590E001968F739927409120058D
:104D300050E08417950739F080932105FC01EC5D64
:104D4000FA4F308301C022E020931F05FF91EF91BD
:104D50009F918F915F914F913F912F910F900FBE37
:104D60000F901F9018951F920F920FB60F9211245B
:104D70008F939F93EF93FF9390912305809122054A
:104D8000981779F08091220590E001968F7399270A
:104D900080932205FC01EC59FA4F80818093C60074
:104DA00005C0E1ECF0E080818F7D8083FF91EF9181
:104DB0009F918F910F900FBE0F901F901895F894B0
:104DC00010922305109222051092210510922005C1
:104DD0007894992324F422E02093C0009F77909345
:104DE000C5008093C40088E98093C10086E0809369
:104DF000C20008954091230550E04F5F5F4F4F730D
:104E000055272091220530E042175307D1F3FA01CC
:104E1000EC59FA4F808340932305E1ECF0E0808168
:104E2000806280830895CF93DF93EC01888188238B
:104E300031F021960E94FA2689918111FBCFDF91F2
:104E4000CF910895CF93DF93EC012196FC018491DB
:104E5000882339F00E94FA26FE018491219681115F
:104E6000F9CFDF91CF910895EF92FF920F931F93A7
:104E7000CF93DF937C018901FC019081892F8F7D85
:104E800009F458C09D3009F457C0F901E70120E04A
:104E900051E0349139131AC00E171F0751F4DE0187
:104EA00011978C918F3329F0863219F0EC16FD069C
:104EB00089F431968491811111C0DE011196852FFC
:104EC00099819D3309F0822FF8010AC0F801DE01B3
:104ED000822F06C0F801DE01822F02C0DE01822F80
:104EE000ED01219611969C911197992339F19032F9
:104EF00089F19D3031F1882361F229C050E04150A1
:104F00005109141615069CF4FB01129620E09193AA
:104F10002F5FBF019D91392F3F7D49F09D3039F0C2
:104F2000963229F0C22FD0E0C417D50784F3FB01D5
:104F3000108212C080E010C080E00EC0813061F4A9
:104F4000F6CF813049F4F3CF9632C1F6F0CF8130FD
:104F5000D9F302C0813059F3DF91CF911F910F91A6
:104F6000FF90EF9008958A3308F0875090E00E94F8
:104F7000D12880530895DF92EF92FF920F931F93F1
:104F8000CF93DF937C01FC018081882329F1E70125
:104F90008B32A1F08532A9F487010E5F1F4FF70114
:104FA00081810E94B327D82EF70182810E94B32706
:104FB000F0E1DF9E90011124822B04C0870180E282
:104FC00001C08701899378018FEFE81AF80AF80188
:104FD00081818111DDCF01C0E7011882DF91CF917E
:104FE0001F910F91FF90EF90DF9008958F929F9205
:104FF000AF92BF92CF92DF92EF92FF920F931F93E7
:10500000CF93DF937C01D22F442359F16B014150A0
:10501000842F90E001965B01A80EB91EC0E0802E9F
:10502000912C87010C0F111DF60181916F01A401D4
:10503000B80190E00E944A29F8018081882341F05C
:10504000CF5F87010C0F111DF80180818111F8CF0E
:10505000DD2319F0F801D083CF5FCA14DB0409F710
:1050600001C0C0E0C150F701EC0FF11D1082DF91CB
:10507000CF911F910F91FF90EF90DF90CF90BF9055
:10508000AF909F908F90089597FB072E16F4009491
:1050900007D077FD09D00E94812807FC05D03EF497
:1050A000909581959F4F0895709561957F4F0895D4
:1050B000A1E21A2EAA1BBB1BFD010DC0AA1FBB1F1C
:1050C000EE1FFF1FA217B307E407F50720F0A21B8E
:1050D000B30BE40BF50B661F771F881F991F1A94FB
:1050E00069F760957095809590959B01AC01BD0125
:1050F000CF0108950E949528B7FF0895821B930B56
:105100000895AA1BBB1B51E107C0AA1FBB1FA6170E
:10511000B70710F0A61BB70B881F991F5A95A9F760
:1051200080959095BC01CD010895A29FB001B39FD9
:10513000C001A39F700D811D1124911DB29F700DA0
:10514000811D1124911D0895FC0188279927E89459
:1051500021912032E9F3293010F02E30C8F32B32A0
:1051600041F02D3239F4689404C00E946029820F06
:10517000911D219120532A30C0F31EF49095819502
:105180009F4F089599278827089591110C94C2285C
:1051900080538A5028F0865C806281568650B0F732
:1051A00008959111089581568A5108F480528558C6
:1051B0000895FB01DC0102C005900D924150504062
:1051C000D8F70895FB01DC010D900020E9F7119755
:1051D00005900D920020E1F70895FB01DC0141509C
:1051E000504030F08D910590801919F40020B9F7E6
:1051F000881B990B0895FB0155915523A9F0BF0118
:10520000DC014D9145174111E1F759F4CD010590AD
:10521000002049F04D9140154111C9F3FB014111A6
:10522000EFCF81E090E001970895FB01DC0104C01D
:105230008D910190801921F441505040C8F7881B8E
:10524000990B0895FC018191861721F08823D9F7E5
:10525000992708953197CF010895FB01DC01415052
:10526000504030F08D910190801919F40020B9F769
:10527000881B990B0895FB01DC014150504048F018
:1052800001900D920020C9F701C01D92415050407D
:10529000E0F708954532510520F4423010F00C94A7
:1052A0005529FB011082CB010895BB274A3031F408
:1052B000992322F4BDE2909581959F4F0C94692922
:1052C0007AE0979F902D879F802D910D112408954E
:1052D000BB27FB015527AA27880F991FAA1FA417D0
:1052E00010F0A41B83955051B9F7A05DAA3308F0C4
:1052F000A95DA193009779F7B111B1931192CB01F8
:105300000C948229DC01FC01672F71917723E1F76E
:10531000329704C07C916D9370836291AE17BF0782
:10532000C8F30895DC01CB01FC01F999FECF06C05A
:10533000F2BDE1BDF89A319600B40D924150504053
:10534000B8F70895F999FECF92BD81BDF89A9927D3
:1053500080B50895A8E1B0E042E050E00C949429B3
:10536000DC01CB0103C02D910E94BB29415050406C
:10537000D0F70895262FF999FECF1FBA92BD81BDAF
:1053800020BD0FB6F894FA9AF99A0FBE01960895C7
:105390000E94BA29272F0C94BB29052E97FB1EF4D7
:1053A00000940E94E42957FD07D00E94582807FC6A
:1053B00003D04EF40C94E4295095409530952195F6
:1053C0003F4F4F4F5F4F0895909580957095619531
:1053D0007F4F8F4F9F4F08952F923F924F925F9232
:1053E0006F927F928F929F92AF92BF92CF92DF92F5
:1053F000EF92FF920F931F93CF93DF93CDB7DEB75A
:10540000CA1BDB0B0FB6F894DEBF0FBECDBF0994ED
:105410002A88398848885F846E847D848C849B8444
:10542000AA84B984C884DF80EE80FD800C811B8152
:10543000AA81B981CE0FD11D0FB6F894DEBF0FBE81
:0A544000CDBFED010895F894FFCFF1
:10544A00FFFFFFFF0808080802FFFFFFFF500100E7
:10545A000A7F7F010401FF100E7365637265740091
:10546A000000000000000000000074696D652E61F4
:10547A0070706C652E636F6D000000000000000004
:10548A00000000013C005410EC002860FFFFFFFF01
:02549A00FFFF12
:00000001FF
