:100000000C94CD080C94F9080C94F9080C94F90898
:100010000C94F9080C94F9080C94F9080C94F9085C
:100020000C94F9080C94F9080C94F9080C94AE1B84
:100030000C94F9080C94F9080C94F9080C94F9083C
:100040000C94F9080C94F9080C94AC270C94E12753
:100050000C94F9080C94F9080C94F9080C94F9081C
:100060000C94F9080C94F908638253633703010375
:1000700006FF00E30004FA0001000000010001088F
:1000800000060400014500008200004000204854A2
:1000900054502F312E3020353031204E6F7420498E
:1000A0006D706C656D656E7465640D0A436F6E747A
:1000B000656E742D547970653A20746578742F6874
:1000C000746D6C0D0A0D0A00485454502F312E30B7
:1000D0002035303020496E7465726E616C20536536
:1000E00072766572204572726F720D0A436F6E747C
:1000F000656E742D547970653A20746578742F6834
:10010000746D6C0D0A0D0A003C68323E436F6E66DA
:1001100069673C2F68323E3C6120687265663D2FFE
:100120003E4F4B3C2F613E003C68323E436F6E6653
:1001300069673C2F68323E3C6120687265663D2FDE
:100140003F70673D313E4572726F723C2F613E00D9
:10015000485454502F312E3020333032204D6F769A
:1001600065642054656D706F726172696C790D0AF7
:100170004C6F636174696F6E3A202F0D0A0D0A008F
:10018000747A007374007570006E74006D61002FD6
:10019000637500696E007465006868002F647500FF
:1001A000746900616C002F6175007077002F7075A5
:1001B000000D0A000D0A0D0A00485454502F312E2C
:1001C0003020343034204E6F7420466F756E640DCD
:1001D0000A436F6E74656E742D547970653A20749D
:1001E0006578742F68746D6C0D0A0D0A00485454BC
:1001F000502F312E3020323030204F4B0D0A436FBC
:100200006E74656E742D547970653A2074657874D7
:100210002F6373730D0A0D0A00626F6479207B0AE5
:1002200009666F6E742D66616D696C793A20617232
:1002300069616C2C2073616E732D73657269663B06
:100240000A7D0A6832207B0A096261636B67726FFC
:10025000756E643A20233463616635303B0A097059
:10026000616464696E673A203470783B0A09636F91
:100270006C6F723A20236666663B0A7D0A7072656F
:10028000207B0A09626F726465723A2031707820AF
:10029000736F6C696420236464643B0A0970616451
:1002A00064696E673A203870783B0A7D0A64697623
:1002B000207B0A0977696474683A20353530707894
:1002C0003B0A09626F726465723A2032707820735B
:1002D0006F6C69643B0A096D617267696E3A20311F
:1002E000307078206175746F3B0A097061646469CD
:1002F0006E673A20302032307078203130707820AC
:10030000323070783B0A7D0A61207B0A0974657877
:10031000742D6465636F726174696F6E3A206E6FDD
:100320006E653B0A7D0A613A686F766572207B0ACA
:1003300009746578742D6465636F726174696F6E9A
:100340003A20756E6465726C696E653B0A7D0A00C1
:10035000485454502F312E3020323030204F4B0D26
:100360000A436F6E74656E742D547970653A20611E
:1003700070706C69636174696F6E2F782D6A617635
:10038000617363726970740D0A0D0A0066756E639D
:1003900074696F6E20747A6928297B0A0976617204
:1003A0002064203D206E6577204461746528293BD8
:1003B0000A0976617220747A6F203D202D642E67C1
:1003C000657454696D657A6F6E654F6666736574A2
:1003D00028293B0A097661722072656D203D2074E0
:1003E0007A6F20252036303B0A09766172206D69CC
:1003F0006E203D2028223022202B2072656D292E70
:10040000736C696365282D32293B0A097661722075
:10041000686F7572203D2028223022202B202874FE
:100420007A6F202D2072656D29202F203630292EDD
:10043000736C696365282D32293B0A097661722045
:100440007374203D20686F7572202B20223A222081
:100450002B206D696E3B0A0969662028747A6F202B
:100460003E203029207374203D20225554432B22F6
:10047000202B2073743B20656C7365207374203DC2
:10048000202255544322202B2073743B0A09646FA9
:1004900063756D656E742E77726974652822205BB2
:1004A000496E666F3A20796F7572205043206973E8
:1004B00020222B73742B225D22293B0A7D0A003EE9
:1004C000656E61626C65640A3C62723E3C696E7086
:1004D000757420747970653D7375626D69742076EA
:1004E000616C75653D6170706C793E203C696E7021
:1004F000757420747970653D627574746F6E2076C2
:10050000616C75653D63616E63656C206F6E636CD5
:1005100069636B3D2277696E646F772E6C6F6361E0
:1005200074696F6E3D272F27223E3C2F666F726DD8
:100530003E3C2F7072653E0020636865636B6564A6
:10054000003E0A3C623E416C61726D3A3C2F623E55
:1005500009093C696E70757420747970653D636833
:1005600065636B626F78206E616D653D616C003C08
:1005700068323E416C61726D3C2F68323E3C707255
:10058000653E3C666F726D20616374696F6E3D2FCE
:100590006175206D6574686F643D706F73743E0A99
:1005A0003C623E54696D65202868683A6D6D293A51
:1005B0003C2F623E093C696E7075742074797065D9
:1005C0003D74657874206E616D653D746920766157
:1005D0006C75653D00485454502F312E3020343016
:1005E0003120556E617574686F72697A65640D0AA1
:1005F000436F6E74656E742D547970653A2074651E
:1006000078742F68746D6C0D0A5757572D417574A7
:1006100068656E7469636174653A204261736963E9
:10062000207265616C6D3D4E545020636C6F636B3E
:100630000D0A0D0A003C68323E436F6E6669673CE6
:100640002F68323E3C6120687265663D2F3E4175E1
:100650007468656E7469636174696F6E2046616960
:100660006C7572653C2F613E003C68323E50617390
:1006700073776F72643C2F68323E3C7072653E3C0B
:10068000666F726D20616374696F6E3D2F707520A7
:100690006D6574686F643D706F73743E0A3C623EB2
:1006A0004E65772070617373776F72643A3C2F6286
:1006B0003E093C696E70757420747970653D706197
:1006C0007373776F7264206E616D653D70773E0A5B
:1006D0003C62723E3C696E70757420747970653D41
:1006E0007375626D69742076616C75653D617070BB
:1006F0006C793E203C696E70757420747970653D2C
:10070000627574746F6E2076616C75653D63616EA1
:1007100063656C206F6E636C69636B3D2277696EF5
:10072000646F772E6C6F636174696F6E3D272F273E
:10073000223E3C2F666F726D3E3C2F7072653E000C
:10074000417574686F72697A6174696F6E3A000AF4
:100750003C2F7072653E3C6120687265663D2F3E9D
:10076000686F6D653C2F613E207C203C6120687283
:1007700065663D2F3F70673D343E726566726573F6
:10078000683C2F613E005761746368646F67205353
:10079000797374656D0042726F776E2D6F7574207A
:1007A0000045787465726E616C2000506F776572D9
:1007B0002D6F6E00207365636F6E64730A3C623E3A
:1007C000526573657420726561736F6E3A3C2F6277
:1007D0003E0900206D696E757465732C20002068D9
:1007E0006F7572732C200020646179732C200020B7
:1007F0006D696E757465730A3C623E557074696DFF
:10080000653A3C2F623E0909000A3C623E4C656134
:1008100073652074696D653A3C2F623E0900207350
:1008200065636F6E64730A3C623E444843502073B4
:1008300065727665723A3C2F623E09000A3C623E60
:1008400055706461746520706572696F643A3C2FFD
:10085000623E09000A3C623E476174657761792017
:100860004D41433A3C2F623E09000A3C623E444EF1
:1008700053204D41433A3C2F623E09000A3C623E00
:100880004E5450204D41433A3C2F623E09000A3CF1
:10089000623E476174657761793A3C2F623E090098
:1008A0000A3C623E495020616464726573733A3C4D
:1008B0002F623E09000A3C623E4D41432061646460
:1008C000726573733A3C2F623E09003C68323E49C0
:1008D0006E666F3C2F68323E3C7072653E3C623EF5
:1008E000454E4332384A3630205265763A3C2F62C4
:1008F0003E0942000A3C62723E3C696E707574208B
:100900006E616D653D706720747970653D686964DE
:1009100064656E2076616C75653D333E3C696E7032
:100920007574206E616D653D616320747970653DFD
:100930007375626D69742076616C75653D636C6575
:1009400061723E3C2F666F726D3E3C2F7072653E49
:100950003C6120687265663D2F3E686F6D653C2F77
:10096000613E207C203C6120687265663D2F3F70AF
:10097000673D333E726566726573683C2F613E0069
:10098000202520204020000A3C623E4C6F77657392
:10099000742048756D69646974793A3C2F623E0928
:1009A00000202520204020000A3C623E48696768FC
:1009B0006573742048756D69646974793A3C2F6277
:1009C0003E090020266465673B43204020000A3C26
:1009D000623E4C6F776573742054656D706572610B
:1009E000747572653A3C2F623E0900202664656783
:1009F0003B43204020003C623E4869676865737451
:100A00002054656D70657261747572653A3C2F6231
:100A10003E09003C68323E486973746F72793C2F1E
:100A200068323E3C7072653E3C666F726D20616359
:100A300074696F6E3D2F206D6574686F643D6765E6
:100A4000743E0A003C2F73656C6563743E0A3C6219
:100A5000723E3C696E70757420747970653D737573
:100A6000626D69742076616C75653D6170706C793A
:100A70003E203C696E70757420747970653D6275B6
:100A800074746F6E2076616C75653D63616E63652D
:100A90006C206F6E636C69636B3D2277696E646F67
:100AA000772E6C6F636174696F6E3D272F27223E2E
:100AB0003C2F666F726D3E3C2F7072653E003C2F7E
:100AC0006F7074696F6E3E002073656C656374654A
:100AD00064003C6F7074696F6E2076616C75653D63
:100AE000003E54656D70657261747572650A3C6292
:100AF0003E496E74656E736974793A3C2F623E09A3
:100B00003C73656C656374206E616D653D696E3E16
:100B10000020636865636B6564003E323468203C86
:100B2000696E70757420747970653D636865636B78
:100B3000626F78206E616D653D7465002063686545
:100B4000636B6564003C68323E446973706C617924
:100B50003C2F68323E3C7072653E3C666F726D2081
:100B6000616374696F6E3D2F6475206D6574686F85
:100B7000643D706F73743E0A3C623E53686F773A0F
:100B80003C2F623E09093C696E707574207479705F
:100B9000653D636865636B626F78206E616D653D6E
:100BA0006868003E4555204453540A3C62723E3CFE
:100BB000696E70757420747970653D7375626D69C6
:100BC000742076616C75653D6170706C793E203C77
:100BD000696E70757420747970653D627574746F98
:100BE0006E2076616C75653D63616E63656C206F28
:100BF0006E636C69636B3D2277696E646F772E6CF0
:100C00006F636174696F6E3D272F27223E3C2F660C
:100C10006F726D3E3C2F7072653E002063686563A5
:100C20006B6564003E3C7363726970743E747A69EC
:100C300028293C2F7363726970743E0A3C623E41FE
:100C400070706C793A3C2F623E09093C696E707590
:100C50007420747970653D636865636B626F78209A
:100C60006E616D653D7374003E0A3C623E555443AF
:100C7000206F66667365743A3C2F623E093C696E6C
:100C800070757420747970653D74657874206E6138
:100C90006D653D747A2076616C75653D003E0A3C59
:100CA000623E4D414320616464726573733A3C2F28
:100CB000623E093C696E70757420747970653D748C
:100CC000657874206E616D653D6D612076616C752F
:100CD000653D003E0A3C623E55706461746520705B
:100CE0006572696F643A3C2F623E093C696E7075AB
:100CF0007420747970653D74657874206E616D65DB
:100D00003D75702076616C75653D003C68323E43F0
:100D10006F6E6669673C2F68323E3C7072653E3C80
:100D2000666F726D20616374696F6E3D2F6375200D
:100D30006D6574686F643D706F73743E0A3C623E0B
:100D40004E545020686F73746E616D653A3C2F622B
:100D50003E093C696E70757420747970653D7465E8
:100D60007874206E616D653D6E742076616C75657A
:100D70003D003C736372697074207372633D747AD2
:100D80002E6A733E3C2F7363726970743E003C2F71
:100D90006469763E3C2F626F64793E3C2F68746DC7
:100DA0006C3E003C2F686561643E3C626F64793E36
:100DB0003C6469763E003C21444F435459504520E1
:100DC00068746D6C3E0A3C68746D6C3E3C6865618D
:100DD000643E3C7469746C653E4E545020636C6F85
:100DE000636B3C2F7469746C653E3C6C696E6B2060
:100DF00072656C3D7374796C6573686565742068A1
:100E00007265663D732E6373733E00485454502FD1
:100E1000312E3020323030204F4B0D0A436F6E742C
:100E2000656E742D547970653A20746578742F68F6
:100E3000746D6C0D0A507261676D613A206E6F2D92
:100E400063616368650D0A0D0A0020250A3C2F7056
:100E500072653E3C6120687265663D2F3F70673D5C
:100E6000313E636F6E6669673C2F613E207C203C9B
:100E70006120687265663D2F3F70673D323E646950
:100E800073706C61793C2F613E207C203C6120684E
:100E90007265663D2F3F70673D333E686973746FBE
:100EA00072793C2F613E207C203C6120687265662F
:100EB0003D2F3F70673D343E696E666F3C2F613E4B
:100EC000207C203C6120687265663D2F3F70673D45
:100ED000353E70617373776F72643C2F613E207C86
:100EE000203C6120687265663D2F3F70673D363E4D
:100EF000616C61726D3C2F613E207C203C612068FA
:100F00007265663D2F3E726566726573683C2F613F
:100F10003E0020266465673B430A3C623E48756D8F
:100F200069646974793A3C2F623E09000A3C623E6A
:100F300054656D70657261747572653A3C2F623EDE
:100F40000900205B44697361626C65645D00205B2D
:100F5000456E61626C65645D000A3C623E416C6195
:100F6000726D3A3C2F623E090900205B4F4B5D00D9
:100F7000205B53796E63696E675D005D0A3C623E7B
:100F80004C6173742073796E633A3C2F623E0900A2
:100F9000205B005D0A3C623E4E54502073657276C1
:100FA00065723A3C2F623E09004F4B0054696D65F3
:100FB0006F7574004572726F7200205B00290A3CE5
:100FC000623E444E53207365727665723A3C2F62DE
:100FD0003E09002028555443003C68323E4E545090
:100FE00020636C6F636B3C2F68323E3C7072653ED1
:100FF0003C623E54696D653A3C2F623E0909002F00
:10100000732E637373002F747A2E6A7300706700F7
:10101000616300706D2000616D2000274320000D8A
:101020000A002069732061742000290D0A0020281D
:10103000555443000D0A00444E532049503A000DC8
:101040000A00476F742049503A000D0A00454E438C
:1010500032384A36302052657620420049434D509E
:1010600020726571756573740D0A000D0A00526572
:10107000706C79206C656E3D00504F5354200047D2
:10108000455420004E545020726571756573740D7F
:101090000A00444E53204572726F720D0A000D0A09
:1010A000004E54502049503A00444E53207265710E
:1010B000756573740D0A0041525020726571756533
:1010C00073740D0A0057616974444843500020202E
:1010D000202020202020004C696E6B20646F776EEA
:1010E0000D0A004C696E6B2075700D0A0072656206
:1010F000696E640D0A00626F756E640D0A00726598
:1011000071756573740D0A0073656C6563740D0AFF
:1011100000696E69740D0A004448435020004E5423
:1011200050636C6F636B00581153114E1149114499
:10113000113F113B1137113E3325003E3725003E4C
:10114000313025003E313725003E323725003E3410
:101150003025003E363025003E31303025005375B5
:101160006E4D6F6E54756557656454687546726947
:10117000536174004A616E4665624D6172417072DE
:101180004D61794A756E4A756C4175675365704F4C
:1011900063744E6F76446563000011241FBECFEF69
:1011A000D8E0DEBFCDBF84B78093BF0514BE0FB6B5
:1011B000F894A895809160008861809360001092F7
:1011C00060000FBE11E0A0E0B1E0E6EAF6E502C083
:1011D00005900D92A235B107D9F725E0A2E5B1E05F
:1011E00001C01D92AF3BB207E1F70E94131C0C94A3
:1011F000512B0C940000A0E0B0E0E1E0F9E00C9489
:10120000242B8C01EB01FC018481682F660F680F91
:101210008581582F550F580F9E0140E0862F840F6F
:1012200090E0A0E0825A9E4EAF4FFC018491A7FD52
:101230008081F90181939F01852F840F90E0A0E0C8
:101240008C589E4EAF4FFC018491A7FD8081F9011F
:1012500083834F5F433011F780E28F838B83BE011E
:10126000685F7F4FF801838140E2082E000C990BE4
:101270000E94C709BE01655F7F4FF80182814AE382
:10128000082E000C990B0E94C709BE01625F7F4FB8
:10129000F80181814AE3082E000C990B0E94C709CE
:1012A000BE016F5E7F4FF801808140E2082E000C86
:1012B000990B0E94C709F8018681978164E670E066
:1012C0008459984F0E9472296B017C01BE016C5EAB
:1012D0007F4F40E2C6010E94C709BE016A5E7F4F90
:1012E00040E0C7010E94C709CDB7DEB7E8E00C9423
:1012F000402B621B730B840B950B08956DEA75E010
:101300000E9485098DEA95E00895A4E0B0E0EBE83D
:10131000F9E00C94242B6C017B01E091BD05F09168
:10132000BE05309729F069EB75E009958C0102C084
:101330000FEF1FEFF601408151816281738180912F
:10134000B9059091BA05A091BB05B091BC05840F79
:10135000951FA61FB71F101611064CF4A801012EE9
:10136000000C660B770B840F951FA61FB71F898390
:101370009A83AB83BC83B701CE0101960E94220AF7
:10138000F701138702872496E8E00C94402B1F9303
:10139000CF93DF93EB01142F6AE070E00E94722973
:1013A000605D6883805D89831A83DF91CF911F918F
:1013B00008959093BE058093BD0508950FB6F894E7
:1013C0006093A9057093AA058093AB059093AC0533
:1013D0000FBE08956093B9057093BA058093BB055D
:1013E0009093BC050895FC010FB6F8946091A9058F
:1013F0007091AA058091AB059091AC050FBE309716
:1014000021F0608371838283938308958F938FB7D4
:101410008F93F8948091A9058F5F8093A90580919F
:10142000AA058F4F8093AA058091AB058F4F8093BB
:10143000AB058091AC058F4F8093AC058F918FBF2A
:101440008F910895A8E0B0E0E8E2FAE00C94242B34
:101450008B01FC01608171818281938120E831E5FB
:1014600041E050E00E94862969017A012CE330E0D6
:1014700040E050E00E94FB2A29833A834B835C833F
:1014800089819A81AB81BC81F80160836CE370E053
:101490000E947229DC01CB01F801A1838283C6017D
:1014A000069667E070E00E94AF2984832DEA3EE84B
:1014B00040E050E0C701B6010E94FB2A29833A832D
:1014C0006D837E838F83988789819A8124E6289F04
:1014D0006001299FD00C11246D817E818F819885B8
:1014E00025EB35E040E050E00E94FB2A29833A8357
:1014F0006D837E83E980FA80EE0CFF1CEE0CFF1CEE
:10150000EC0CFD1C8D819E81F5E6EF16F10410F0C8
:10151000019604C024E6E216F10419F021E030E05F
:1015200002C020E030E0A90144595E4F4817590736
:1015300068F46DE671E0821B930B0E947229DC0156
:10154000CB01E80EF91ECD0120E030E044E6E40EC8
:10155000F11CF801F782E68291878087255C3F4F76
:101560008217930748F46FE170E00E947229DC0152
:10157000CB01F801858322C069E970E0821B930BDF
:101580000E947229DC01CB01F82EFF0CFF0CF80E33
:101590006DE370E0CD010E947229DC01CB01E82EE1
:1015A000EE0C6FE170E0CD010E947229DC01CB01ED
:1015B00022E0280FF20EFE0CF801F582A383F80159
:1015C0001386128683818F5F83832896E8E00C94CC
:1015D000402B8091540190915501A0915601B091FA
:1015E00057018F3F2FEF9207A207B20759F00197DB
:1015F000A109B1098093540190935501A09356011C
:10160000B09357010895EF92FF920F931F93CF93DA
:10161000DF9300D000D000D0CDB7DEB77C0186E0EC
:10162000ECE4F1E0DE01119601900D928A95E1F76C
:101630008E010F5F1F4F23E430E0A80164E470E0E7
:10164000C7010E944C17F7017A9684E0DF011D92D2
:101650008A95E9F781E0F70182A783A786E084A74E
:1016600015A68091580186A787A780AB81ABF2961B
:1016700084E1DF011D928A95E9F7D701AA5BBF4F8C
:10168000BC9786E001900D928A95E1F7F701E45B43
:10169000FF4F8AECDF011D928A95E9F744E050E0A4
:1016A00068E670E0C7018A5E9E4F0E94072A269670
:1016B0000FB6F894DEBF0FBECDBFDF91CF911F9163
:1016C0000F91FF90EF900895CF93DF93EC010E946C
:1016D000030BFE01E65EFE4F85E38083319681E0D9
:1016E00080833196808347E050E06CE670E0CE0165
:1016F000835E9E4F0E94072A69EF70E0CE010E9430
:10170000AB1780E0DF91CF910895CF93DF93DC0199
:101710006D3181E07807C8F1FD01E55EFE4F808103
:101720008823A9F190E09C01265E3E4F855E9E4F86
:101730006817790770F1319780818533E1F415C01E
:10174000ED01C20FD31F9B81992329F19A01290F23
:10175000311DC901019668177907F8F0ED01C40F32
:10176000D51F8881853339F402C0ECE1F1E0EA0F3E
:10177000FB1F808113C0A9014E5F5F4FF9013496B2
:10178000E617F707E8F280E009C080E007C080E0D4
:1017900005C080E003C080E001C080E0DF91CF9110
:1017A00008956D31714030F1FC0123A1233421F5FE
:1017B00022A5223019F536A520915801321320C0F8
:1017C00027A523131FC030A923131EC031A932132C
:1017D0001DC022AD2223E1F082AD93ADA4ADB5AD25
:1017E0008093650190936601A0936701B0936801AF
:1017F00081E0089580E0089580E0089580E00895F4
:1018000080E0089580E0089580E0089580E00895E4
:1018100081E00895EF92FF920F931F93CF93DF9390
:10182000EC018B016D31714008F4C1C0FE01E55E31
:10183000FE4F7081772309F4BCC0472F50E0CA01E6
:10184000855E9E4F0817190708F4B5C00F2EFCE1FE
:10185000EF2EFF24F394F02D2AE131E012C0F901BC
:101860003196CE018E0F9F1FDC017C91772309F406
:10187000A4C0472F50E0E40FF51F0E171F0708F410
:101880009EC0FE01E20FF31F9081933031F128F4E6
:10189000992369F0913069F07CC0933309F442C018
:1018A000963309F464C0963009F073C02AC09801D9
:1018B00070C0743009F06DC0D701AC0FBD1F8D91A1
:1018C0009D910D90BC91A02D80935D0190935E0140
:1018D000A0935F01B09360015CC0743009F059C0FF
:1018E000D701AC0FBD1F8D919D910D90BC91A02D86
:1018F0008093610190936201A0936301B0936401AE
:1019000048C0D701AC0FBD1F8D919D910D90BC912A
:10191000A02D8093040190930501A0930601B0933C
:10192000070137C07430A9F5809100019091010141
:10193000A0910201B0910301F9013296EC0FFD1F55
:10194000B9016A5F7F4F6C0F7D1FF190BA2FA92FED
:10195000982F88278F29E617F707B9F7809300019A
:1019600090930101A0930201B093030112C074305F
:1019700081F4D701AC0FBD1F8D919D910D90BC914D
:10198000A02D8093590190935A01A0935B01B093CD
:101990005C014E5F5F4F240F351F7901B2E0EB0E03
:1019A000F11CE016F10608F45ACF81E009C080E08E
:1019B00007C081E005C081E003C081E001C081E093
:1019C000DF91CF911F910F91FF90EF900895FC014F
:1019D000DA018C91882379F0608384E081838D9192
:1019E0009C9111979383828312968D919C9113976A
:1019F0009583848386E008950F931F93CF93DF939D
:101A00008C010E94030BF801E65EFE4F85E38083A4
:101A1000319681E08083319683E0808349E551E00F
:101A200066E3C801835E9E4F0E94E70CC3E0C80FC7
:101A30008C2F90E0865E9E4F45E651E062E3800F7A
:101A4000911F0E94E70C8C0FC82FD0E0CE01865E5C
:101A50009E4F47E050E06CE670E0800F911F0E94BF
:101A6000072ABE016A507F4FC8010E94AB1780E071
:101A7000DF91CF911F910F910895109252018093A1
:101A80005801089581E040915401509155016091B1
:101A9000560170915701452B462B472B09F080E0EA
:101AA0000895282F30E040E050E0609100017091EF
:101AB000010180910201909103010E9486292093E7
:101AC00054013093550140935601509357010E94A1
:101AD000420D81111092520108958091530190E0BE
:101AE000A0E0B0E08093540190935501A09356017B
:101AF000B09357010895EF92FF920F931F93CF93E6
:101B00007C018B010E945C12882309F46FC0C09194
:101B10005201C33008F067C001151105A1F5C111CC
:101B20000FC081E08093520184E0809353010E94B2
:101B30006D0D0E944A12C7010E94640B8C2F56C083
:101B40000E94420D882309F451C0809158018F5F93
:101B50008093580180915301880F80935301813203
:101B600020F01092520180E041C00E946D0DC13002
:101B700029F4C7010E94640B80E038C0C7010E94AD
:101B8000FC0C80E033C0B801C7010E94D10B882350
:101B900069F1B801C7010E94850B823081F48093FE
:101BA000520184E0809353010E946D0DB801C7017A
:101BB0000E940A0CC7010E94FC0C80E017C085300F
:101BC00061F483E0809352011092530182E00E94FD
:101BD000510D0E94531281E009C0863031F41092F9
:101BE000520180E003C080E001C080E0CF911F91EE
:101BF0000F91FF90EF900895CF92DF92EF92FF92B6
:101C0000009769F0C0906501D0906601E09067018F
:101C1000F0906801FC01C082D182E282F3826115FA
:101C2000710569F080915D0190915E01A0915F0165
:101C3000B0916001FB0180839183A283B38341153E
:101C4000510569F08091610190916201A091630159
:101C5000B0916401FA0180839183A283B38321153B
:101C6000310569F08091040190910501A091060170
:101C7000B0910701F90180839183A283B383FF9020
:101C8000EF90DF90CF9008950F931F93009769F026
:101C90000091590110915A0120915B0130915C0132
:101CA000FC0100831183228333836115710569F080
:101CB0008091000190910101A0910201B091030176
:101CC000FB0180839183A283B383809152011F9192
:101CD0000F9108950F931F93CF93DF938C019091F1
:101CE0005201933008F46EC0EB01209709F046C012
:101CF0000E94420D882309F441C00E945C1288238F
:101D000009F463C0809158018F5F8093580184E08B
:101D1000809352010E944A12C8010E94030B8091D5
:101D2000650190916601A0916701B0916801F80189
:101D3000828F938FA48FB58F86AB97ABA0AFB1AFD7
:101D4000E65EFE4F85E38083319681E080833196A5
:101D500083E0808363EF70E0C8010E94AB1788E0E6
:101D60000E94510D809153018F5F80935301843005
:101D700078F11092520180E090E032C0BE01C801BB
:101D80000E94D10B882339F1BE01C8010E94850B46
:101D9000853089F483E080935201109253010E94B0
:101DA0005312BE01C8010E940A0C82E00E94510D2C
:101DB00080E090E015C0863089F41092520180E0F6
:101DC00090E00EC0862F972F0BC080E090E008C0F7
:101DD00080E090E005C08C2F9D2F02C080E090E055
:101DE000DF91CF911F910F910895CF92DF92EF92E3
:101DF000FF920F931F93CF93DF9300D000D01F92D9
:101E0000CDB7DEB76C01DE01119695E0FD011192B0
:101E10009A95E9F73C9A449AFFEF2FE382E0F1505C
:101E200020408040E1F700C000004498A9E9B1E8F3
:101E30001197F1F700C0449A3C98B2E6BA95F1F7D1
:101E40000000349959C0E4ECEA95F1F700C0349BE6
:101E500055C0F4ECFA95F1F700C08E010F5F1F4FEB
:101E60007E0126E0E20EF11CE1E0F0E026C0215008
:101E7000310919F445C029EC30E0349BF8CF8AE4ED
:101E80008A95F1F7349B08C09F01042E02C0220FEF
:101E9000331F0A94E2F7922B29EC30E003C0215063
:101EA000310981F13499FBCF4150510920F7D80114
:101EB0009D938D01EA16FB0621F047E050E090E08B
:101EC000DACF3C9A449ABFEFEFE3F2E0B150E04042
:101ED000F040E1F700C0000029813B818A81820F38
:101EE000830F9C81890F9D8189130EC0D6013C937D
:101EF000FB01208380E009C08FEF07C08FEF05C092
:101F00008FEF03C08FEF01C08FEF0F900F900F90F6
:101F10000F900F90DF91CF911F910F91FF90EF9055
:101F2000DF90CF9008950E94F50E0895009751F02C
:101F3000DC01EFE6F1E023E731E08D918193E217D8
:101F4000F307D9F7089580916E0108958091690192
:101F50000895EAE6F1E0DC012EE631E081918D930F
:101F6000E217F307D9F70895EF92FF920F931F93AB
:101F7000CF93DF93EC017B018A0110926E010E94E6
:101F80005C12811105C084E08093690181E069C021
:101F900010926901609173016F5F6093730170E04B
:101FA000706E25E330E04FE651E0CE010E944C1701
:101FB000809173018BA781E08CA7FE01BD96CE01B5
:101FC000C6961192E817F907E1F781E08FA7F701AC
:101FD00090819923C1F02CE06DE09E3241F4DE0146
:101FE000A20FB11D81509A968C93262F80E091917B
:101FF000DE01A60FB11D9A969C938F5F6F5F908153
:102000009111EBCF03C081E02CE06DE0FE01E20F07
:10201000F11D815082A7FE01E60FF11D12A681E09D
:10202000860FFE01E80FF11D12A682E0860FFE0169
:10203000E80FF11D81E082A793E0960FFE01E90F02
:10204000F11D12A694E0960FFE01E90FF11D82A783
:1020500089EF860F8AA76B5F70E0CE010E94AB17F5
:1020600080E0DF91CF911F910F91FF90EF90089545
:10207000FC016634710508F472C083A1853309F050
:1020800070C084A1803E09F06EC085A1909173015B
:1020900089136BC093A589136AC085A58F78803892
:1020A00029F081E08093690180E0089592A5945F12
:1020B00061537109DF01A90FB11D9A968C91807C43
:1020C00071F09E5F11C081E0890FDF01A80FB11D83
:1020D0009A962C91211102C09E5F06C0982F292F3D
:1020E00030E02617370778F3292F30E0DF01A20F01
:1020F000B31F9B968C91813099F088E0890FDF01A6
:10210000A80FB11D9B968C91965F980F292F30E0F8
:102110002617370778F283E08093690180E00895FD
:10212000DF01A20FB31FD3962C91243029F082E057
:102130008093690180E00895965FE90FF11D42A543
:1021400053A564A575A540936A0150936B016093F4
:102150006C0170936D0191E090936E01089580E0A1
:10216000089580E0089580E0089580E0089580E07B
:1021700008952A98962F6F71862B8EBD0DB407FE99
:10218000FDCF1EBC0DB407FEFDCF992324F41EBC69
:102190000DB407FEFDCF2A9A8EB508952A986F7167
:1021A000862B8EBD0DB407FEFDCF4EBD0DB407FED0
:1021B000FDCF2A9A0895FB012A982AE32EBD0DB47B
:1021C00007FEFDCF009769F0DF01A80FB91F1EBC05
:1021D0000DB407FEFDCF9EB59193EA17FB07B9F743
:1021E00001C0DF011C922A9A0895FB012A982AE770
:1021F0002EBD0DB407FEFDCF09C09F01280F391F6A
:1022000091919EBD0DB407FEFDCF03C00097A9F7C5
:1022100003C02E173F07A1F72A9A08951F93CF9363
:10222000DF93182F1076C12FD0E08091760190E0D7
:10223000C817D907B1F043E06FE180EA0E94CE10E1
:10224000AE015595479555954795559547955595A3
:102250004795559547956FE180E80E94CE10109301
:102260007601DF91CF911F910895CF93C82F0E94DF
:102270000E116C2F80E00E94B910CF910895CF937A
:10228000DF93C82FD62F0E940E114D2F6C2F80E4A4
:102290000E94CE10DF91CF910895CF93682F84EDE7
:1022A0000E943F1161E082ED0E943F118AEE0E9480
:1022B000351180FDFBCF60E082ED0E943F1189ED7A
:1022C0000E943511C82F88ED0E9435112C2F30E067
:1022D000322F2227A901482BCA01CF910895CF930D
:1022E000DF93D62FC72F682F84ED0E943F116D2FEB
:1022F00086ED0E943F116C2F87ED0E943F1104C0B4
:1023000088E18A95F1F700C08AEE0E94351180FDC0
:10231000F7CFDF91CF910895CF93DF93EC016881E0
:1023200084EE0E943F11698185EE0E943F116A810F
:1023300082EE0E943F116B8183EE0E943F116C81FF
:1023400080EE0E943F116D8181EE0E943F11DF916E
:10235000CF910895CF93DF93EC01229A2A9A84B10A
:10236000886284B924982B982D9880E58CBD8DB512
:1023700081608DBD4FEF60E08FEF0E94CE108FEF38
:102380009FE80197F1F700C00000109275011092CC
:10239000740160E088E00E943F1160E089E00E94E3
:1023A0003F1160E08CE00E943F1160E08DE00E94F0
:1023B0003F116FEF8AE00E943F1169E18BE00E94BC
:1023C0003F1160E084E00E943F116AE185E00E94D5
:1023D0003F116FEF86E00E943F116FE187E00E949E
:1023E0003F1160EB88E30E943F116FE388E20E9497
:1023F0003F1160E389E20E943F1169EF80E30E9490
:102400003F1167EF81E30E943F116DE080EC0E9475
:102410003F1160E081EC0E943F1142E362EC80E8F2
:102420000E94CE1062E186EC0E943F116CE087ECC6
:102430000E943F1162E184EC0E943F116CED8AEC36
:102440000E943F1165E08BEC0E943F11CE010E947B
:102450008C1160E071E080E10E946F118FE10E94B9
:102460000E1140EC6BE180E80E94CE1044E06FE179
:1024700080E80E94CE1066E774E084E10E946F114C
:10248000DF91CF91089582E70E943511863008F0E0
:102490008F5F089588E30E943511682F616088E39B
:1024A0000E943F11089588E30E943511682F6E7FC6
:1024B00088E30E943F11089581E10E944D1192FB33
:1024C000882780F908950F931F93CF93DF93EC0132
:1024D0008B016FE180E00E94B91083FDFACF8CE19F
:1024E0000E94351181FF15C040E86FE180E80E942D
:1024F000CE1040E86FE180EA0E94CE1042E06CE12D
:1025000080EA0E94CE108FEF97E40197F1F700C0A8
:10251000000060E082E00E943F116AE183E00E94D7
:102520003F116C2F86E00E943F11CE01965E692F0D
:1025300087E00E943F1140E060E08AE70E94CE10F1
:10254000B801CE010E94F51048E06FE180E80E94DA
:10255000CE10DF91CF911F910F910895AF92BF924E
:10256000CF92DF92EF92FF920F931F93CF93DF935F
:102570006C017B0189E30E943511882309F464C052
:1025800060917401C091750180E00E943F116C2F31
:1025900081E00E943F1160E08AE30E94B910C82FD9
:1025A00060E08AE30E94B910D0E0D82BD093750187
:1025B000C093740160E08AE30E94B910B82E60E015
:1025C0008AE30E94B910A82E60E08AE30E94B91045
:1025D000082F60E08AE30E94B91007FF11C081E074
:1025E000C81AD1080B2D10E01A2904501109C01681
:1025F000D10608F48601B701C8010E94DB1002C0B1
:1026000000E010E07E0181E0E81AF108E1148AE1BF
:10261000F8064CF06FEF8CE00E943F1169E18DE00D
:102620000E943F1109C06C2F61508CE00E943F1145
:102630006F2D8DE00E943F1140E46EE180E80E9422
:10264000CE10802F912F02C080E090E0DF91CF91DB
:102650001F910F91FF90EF90DF90CF90BF90AF90C0
:10266000089598B1987F98B928B1982F92959F7046
:102670009770922B98B99BB1937C9BB99BB18F704B
:10268000880F880F892B8BB90895CF93DF93909192
:102690007701943010F037E001C036E0439A95B1ED
:1026A0009C7F95B925B1909177019370922B95B944
:1026B0009091770191509770909377019BB1C1E011
:1026C000D0E002C0CC0FDD1F3A95E2F72C2F209509
:1026D00092239BB90E9431138BB1C82BCBB9DF91E8
:1026E000CF91089543989BB19F739BB9880F880F32
:1026F000880F0E9431138BB1806C8BB90895CF93F2
:10270000DF93EC018881882331F021960E944513E4
:1027100089918111FBCFDF91CF9108950F931F9382
:10272000CF93DF93FC018081882381F0662371F0D1
:10273000D62F8F01C0E0CF5F0E944513F801EC0F48
:10274000F11D8081882311F0DC13F5CFDF91CF914B
:102750001F910F910895CF93DF93EC012196FC0117
:102760008491882339F00E944513FE0184912196BB
:102770008111F9CFDF91CF91089597E0981B909345
:102780007701089584B1836084B987B18F6087B978
:102790008AB18C6F8AB98BB1806C8BB987E08093DA
:1027A00077010895CF92DF92EF92FF92CF93DF935C
:1027B000EC01DB01413061F46B0188E0C81AD108FB
:1027C000E12CF12C81E1C80ED11CE11CF11C11C0DF
:1027D000423061F46B0188E0C81AD108E12CF12C79
:1027E00086E0C80ED11CE11CF11C03C0C12CD12C09
:1027F0007601A230B105F0F09D01FE01408150E06C
:1028000060E070E0762F652F542F44278181482B9C
:10281000C40ED51EE61EF71E329622503109223014
:10282000310560F7CD0102978E7F0296C80FD91F40
:10283000A170BB27AB2B61F0888190E0A0E0B0E0F5
:10284000BA2FA92F982F8827C80ED91EEA1EFB1E63
:10285000A70166277727411551056105710571F0BC
:10286000EE24FF24C40ED51EE61EF71EA701662720
:102870007727411551056105710591F7C6018095CE
:102880009095DF91CF91FF90EF90DF90CF900895DA
:10289000009741F026E0FC01A7E8B1E001900D921D
:1028A0002A95E1F708950097C1F0DC01E3E8F1E033
:1028B00027E831E08D918193E217F307D9F761158D
:1028C000710571F0DB01E9E0F1E02DE031E08D917F
:1028D0008193E217F307D9F708956115710591F710
:1028E0000895CF93DF93FC0130812091830123274A
:1028F00030910901232391F43196C4E8D1E0AAE094
:10290000B1E0AC014C5F5F4F819129919D9182278D
:10291000892331F4E417F507B9F703C081E001C05A
:1029200081E0DF91CF91089569327105C8F0FC0113
:1029300024852830B9F425852630B1F436A12091BC
:102940008301321313C0B796A4E8B1E08A9631919F
:102950002D9132130DC0E817F907C9F781E00895EA
:1029600080E0089580E0089580E0089580E0089573
:1029700080E00895CF93DF93FC016A327105E0F0A7
:1029800084858830D9F4858581111AC0968595345F
:10299000C1F4268D90918301291313C0DF015F9646
:1029A000C4E8D1E0B2962D91999129130AC0AE17CF
:1029B000BF07C9F781E005C080E003C080E001C027
:1029C00080E0DF91CF910895FC01A7E8B1E09C0180
:1029D0002A5F3F4F868181938D918583E217F307AC
:1029E000C9F70895CF93DF93EC01188E198E80E418
:1029F0008C8B1D8A8E8B40E064E170E0CE010E96D8
:102A00000E94D213988F898FDF91CF910895AC01E6
:102A1000A3E8B1E0FC017A9627E831E09081948345
:102A20009D919193A217B307C9F7CA010E94F214AE
:102A30000895FC01BA9686962291620F711D248139
:102A40006483442311F0208301C01082672F77270D
:102A5000E817F90789F70895CF93DF93EC018CA16C
:102A60009AA19CA38AA38DA19BA19DA38BA3CE0118
:102A70000E9419151AAA1BAA80E58EA7DF91CF9193
:102A80000895CF93DF93EC010E94E4141C8A82E046
:102A90008D8BA7E8B1E0FE0176962DE831E08081CC
:102AA00082878D918193A217B307C9F7A3E8B1E09C
:102AB000FE017C9627E831E0808182878D918193A9
:102AC000A217B307C9F7BE018AE290E00E94631221
:102AD000DF91CF9108950F931F93CF93DF93EC0174
:102AE0008B010E94E414CE010E9407151AA28CA14A
:102AF000883F18F09DA19F5F9DA3885F8CA3BE01B6
:102B0000C8010E946312DF91CF911F910F91089528
:102B1000FC01208930E0322F22278189282B245183
:102B2000310986A582958F70A90164E0869F4019BE
:102B300051091124CA01992314F480E090E008950A
:102B40009A012F5F3F4FFA014491442369F0FB0142
:102B5000F696DC01AE0FBF1FF9014D936F5F7F4FFB
:102B6000449131964111F9CFCB010895222391F080
:102B7000A42FB52FAB014A5C5F4FFC01E40FF51F9A
:102B8000922F3D9131939150E1F72150620F711DC9
:102B90006F5F7F4FCB010895FA0101900020E9F7A4
:102BA00031979F01241B350B0E94B6150895FF92A3
:102BB0000F931F93CF93DF93EC018B01F42E0E94B0
:102BC000E4148F2D80618FA784E0F81206C041E0E5
:102BD000B801CE010E942C150AC00115110511F48F
:102BE00001E010E041E0B801CE010E942C15188AE6
:102BF00088E2898BCE010E94071584E088AB19AA70
:102C000042E06CE170E0CE014A960E94D2139AAB8A
:102C10008BABBE0186E390E00E946312DF91CF91FF
:102C20001F910F91FF9008950F931F93CF93DF9300
:102C3000EC018B01CB018896988B898BCE010E9489
:102C4000F2141AAA1BAAB801645E7F4F42E0CE01BB
:102C50004A960E94D2139AAB8BABBE01C801C696AE
:102C60000E946312DF91CF911F910F910895CF932E
:102C7000DF93EC010E94E414188A8CE2898BCE0168
:102C80000E94071582E18FA740E061E070E0CE016D
:102C90000E942C151EA21FA28091100188A719A6C0
:102CA0008D5F8093100182E08EAB84E08FAB85E076
:102CB00088AF19AE80E68EA78AE088AB19AA42E0F9
:102CC00060E270E0CE014A960E94D2139AAB8BABC1
:102CD000BE018AE390E00E946312DF91CF910895D4
:102CE0000F931F93CF93DF93EC018B0160917801D9
:102CF0007091790140E00E94D71589E18FA7B80152
:102D0000CE010E941416DF91CF911F910F9108956B
:102D1000DC01FA016115710541F0680F791F84919A
:102D20008D9331966A177B07D1F70895DF92EF9262
:102D3000FF920F931F93CF93DF93EC01062F172F72
:102D4000F42ED22EE32E0E945C12882309F468C070
:102D50008D2D9E2DBE01E7E8F1E04DE851E0DC014C
:102D60002D91CD01DB012D93BD01219115962C9361
:102D7000E417F507A1F788E08C871D8645E850E049
:102D800069E070E0CE010E960E94881680910801DD
:102D90008B8B8F5F809308018CE4898B81E18F8B13
:102DA000802F912FA3E8B1E08E01065E1F4FB8017E
:102DB00047E851E0FC012191CF01FB0124832D91D3
:102DC0002193BF01A417B507A9F7CE010E94F21401
:102DD0001CA28BE78DA38AE08AA3FBA21EA288E334
:102DE0008FA318A619A6CE018A96FC019E01265A29
:102DF0003F4F1192E217F307E1F743E750E06AE033
:102E000070E00E94881641E060E470E0C8010E9412
:102E1000D21398A789A7BE018AE590E00E946312A9
:102E2000DF91CF911F910F91FF90EF90DF90089568
:102E3000CF93DF93FC01442319F085A1481326C0EA
:102E400086A1811125C097A1983319F593A19B37CD
:102E500001F5DF01AE5ABF4F2C9111968C9190E095
:102E6000A0E0B0E0DC0199278827B22BEF01CB5A14
:102E7000DF4F2881822BEC5AFF4F2081922BFB01E0
:102E800080839183A283B38381E003C080E001C08B
:102E900080E0DF91CF9108958F929F92AF92BF9281
:102EA000CF92DF92EF92FF920F931F93CF93DF9316
:102EB0004C01F62EE72EA42EB52ED22EC32EDC0109
:102EC000E7E8F1E02DE831E0E80189918E018D938A
:102ED000819115968C931597E217F307A9F788E06F
:102EE000F4018487158645E850E069E070E0C4018C
:102EF0000E960E94881680910801E4018B8B8F5FEB
:102F000080930801188A81E18F8B8A2D9B2DA3E87D
:102F1000B1E0F4017A9647E851E0EC012991CE0145
:102F200024832D912193A417B507B9F7F401C4A206
:102F3000D5A2E2A2F3A216A210A611A6DF91CF910C
:102F40001F910F91FF90EF90DF90CF90BF90AF90C7
:102F50009F908F9008950F931F93CF93DF93EC0171
:102F60008B01CB014C96898B988BCE010E94F21479
:102F7000C80108968FA39EA3B801605F7F4F41E010
:102F8000CE014A960E94D21389A798A7BE01C80114
:102F90008A960E946312DF91CF911F910F9108953D
:102FA000CF92DF92EF92FF920F931F93CF93DF9315
:102FB0007C01809183018823D1F1D701C7E8D1E05A
:102FC0000DE811E0FE012FEF2D93919115969C9342
:102FD00015970E171F07C1F7D72EC62E88E0F701E9
:102FE000848786E085874DE750E068E070E0C701A0
:102FF0000E960E948816F701769689918193118624
:103000000C171D07D1F7CC2DDD2DA3E8B1E0F7019A
:103010007C9627E831E0899182878D918193A21770
:10302000B307C9F7B7018AE290E00E946312DF910B
:10303000CF911F910F91FF90EF90DF90CF90089567
:103040005093A8054093A70521E020937C0160934D
:103050007B01DC01EDE7F1E021E831E08D91819326
:10306000E217F307D9F708959093820180938101C5
:103070000895DF92EF92FF920F931F93CF93DF9308
:103080008C01EB012097A9F580917C01893079F4BE
:1030900080910E0190910F01892BF9F40E945C122E
:1030A000882329F06DE771E0C8010E94D017809154
:1030B0007C01813091F40E945C12882371F06DE7ED
:1030C00071E0C8010E94D01780917C0188608093D4
:1030D0007C0110920F0110920E0180910E019091CF
:1030E0000F01019690930F0180930E01E12CF12CBA
:1030F000B3C00E949414882369F1F8018589813056
:1031000019F4C8010E94411580917C0183FF84C09D
:10311000F8018589823009F082C044E050E06DE713
:1031200071E0C8014C960E94432A892B09F07AC0AD
:10313000A8014A5E5F4FE091A705F091A805609154
:103140007B018DE791E0099582E080937C01E12C81
:10315000F12C82C0BE01C8010E94BA14882309F470
:1031600064C0F80187898130A1F482A1883009F018
:103170005FC0E0918101F0918201309719F0C801A0
:103180004A960995BE01C8010E946B15E12CF12CED
:1031900063C0C633D10508F44EC0863009F04EC076
:1031A000F80194A180917A0198134BC095A1809168
:1031B0000D01981349C0D7A4D1FE06C0C8010E94D2
:1031C0003716E12CF12C48C0D4FE41C0C8010E9442
:1031D00088157C019093790180937801892B49F4BB
:1031E000D0FE3AC040E060E070E0C8010E94D71510
:1031F00033C0F801E6A4E694E694E694E694F12C54
:10320000EE0CFF1CEE0CFF1CF2E2EF0EF11C2897F7
:10321000CE15DF05F8F020C0E12CF12C1DC0E12C0B
:10322000F12C1AC0E12CF12C17C0E12CF12C14C0A8
:10323000E12CF12C11C0E12CF12C0EC0E12CF12C71
:103240000BC0E12CF12C08C0E12CF12C05C0E12CC5
:10325000F12C02C0E12CF12CC701DF91CF911F911D
:103260000F91FF90EF90DF900895FC018081918194
:10327000A281B381B23C20F08058924AA149B44B5C
:10328000BC01CD016059794A8D4E984D20E83AE352
:1032900049E050E00E948629DA01C901880F991F90
:1032A000AA1FBB1F880F991FAA1FBB1F880F991F3A
:1032B000AA1FBB1F821B930BA40BB50BBC01CD0136
:1032C000660F771F881F991F660F771F881F991F2A
:1032D00025EB35E040E050E00E94862968357340D8
:1032E00018F080E090E0089580E19EE00895FC01F0
:1032F000DC01149680E011C0AB01022E02C055958E
:1033000047950A94E2F740FD8F5F2F5F3F4F2830CB
:10331000310591F7EA17FB0729F0619170E020E091
:1033200030E0EACF08958CE590E10E94502808959E
:10333000EF92FF920F93CF93C62F7A010AE02EE20D
:1033400044E0BC018DED94E00E9424298DED94E0D1
:103350000E94412882E290E10E94502800E12AE385
:1033600046E0B7018DED94E00E9424298DED94E0B4
:103370000E9441288FE190E10E945028C13071F4F1
:1033800086E0F701A8E0B5E001900D928A95E1F79B
:103390001092D20481E0809301050FC0C23069F41D
:1033A00086E0F701A2E0B5E001900D928A95E1F781
:1033B0001092D20481E080930005CF910F91FF908D
:1033C000EF9008954BE05EE060E070E083EA91E00A
:1033D0000E94A0150895CF93DF93EB0146EB5DE0CB
:1033E000BC0183EA91E00E94A015209731F0AE0164
:1033F000BC0183EA91E00E94A01543EA5DE0BC01B4
:1034000083EA91E00E94A015DF91CF9108954EE8E4
:103410005DE0BC0183EA91E00E94A015089545EDAE
:1034200055E060E070E083EA91E00E94A01560E062
:1034300070E00E94EB1945E356E0BC0183EA91E09D
:103440000E94A0150E94071A089540E551E060E02F
:1034500070E083EA91E00E94A0150895EF92FF9238
:103460000F93CF93DF937B01BC0183EA91E00E942D
:10347000A015EC010AE02EE244E0B7018DED94E0E6
:103480000E9424294DED54E0BE0183EA91E00E94A0
:10349000CC15DF91CF910F91FF90EF9008950F938E
:1034A0001F93CF93DF938B01BC0183EA91E00E94CD
:1034B000A015EC01C8010E947E096DED74E00E9428
:1034C000FB084DED54E0BE0183EA91E00E94CC156B
:1034D000DF91CF911F910F910895EF92FF920F937B
:1034E000CF93DF937B01BC0183EA91E00E94A0159A
:1034F000EC0100E12AE346E0B7018DED94E00E9483
:1035000024294DED54E0BE0183EA91E00E94CC15E0
:10351000DF91CF910F91FF90EF9008950F931F933C
:10352000CF93DF938B01BC0183EA91E00E94A01549
:10353000EC014AE06DED74E0C8010E94962A4DED61
:1035400054E0BE0183EA91E00E94CC15DF91CF9157
:103550001F910F9108950F931F93CF93DF938C01C9
:10356000CB01EA014AE06DED74E00E94962A4DED30
:1035700054E0B80183EA91E00E94CC15AE01BC0191
:1035800083EA91E00E94A015DF91CF911F910F91E6
:103590000895AF92BF92CF92DF92EF92FF920F9376
:1035A0001F93CF93DF9300D000D0CDB7DEB760E498
:1035B00077E00E94292A009709F47BC07C0125E16D
:1035C000E20EF11C6701A7018E010B5F1F4F0F2E4A
:1035D000FFE3AF2EF02D0F2EFEE3BF2EF02D46C0E1
:1035E0009D912FEB290F2A3110F4208319C08FE908
:1035F000890F8A3118F49754908312C080ED890F97
:103600008A3018F49C5F90830BC09B3211F4B08217
:1036100007C09F3211F4A08203C09D3309F41082C9
:103620003196E017F107E1F64C5F5F4F2A818981FF
:10363000880F880F922F92959F70892BFB018083B2
:103640008B81F0E12F9F90011124982F96959695EC
:10365000292BFB012183F0E48F9FC00111249C8161
:10366000892BFB018283F3E0CF0ED11CB601FA0156
:1036700001900020E9F73197E41BF50B349720F017
:10368000DA01FE013196ACCFF60110826AE370E0F8
:10369000C7010E94502AFC01119240E150E0BF0195
:1036A00089E191E00E945B2A21E0892B19F020E05A
:1036B00001C020E0822F0F900F900F900F90DF91AC
:1036C000CF911F910F91FF90EF90DF90CF90BF901F
:1036D000AF900895FC01962F643658F46A3018F4C0
:1036E00080E3808331964AE0BF01892F90E00E94F9
:1036F000832A08951F93CF93DF93EB01992334F42A
:103700002DE2288391958195910902C02BE22883AF
:103710006CE370E00E947229182FCE0101960E947E
:103720006A1B8AE38B83612FCE0104960E946A1B79
:10373000DF91CF911F910895CF93DF93EC016091BA
:10374000D6040E946A1B8AE38A836091D504CE0165
:1037500003960E946A1BDF91CF9108951F920F92EA
:103760000FB60F9211242F933F934F935F936F9354
:103770007F938F939F93AF93BF93EF93FF930E9499
:10378000060A0E94E90A8091D0048F5F8093D004DA
:103790008091D0048C3338F01092D0048091CF0403
:1037A0008F5F8093CF048091CF048C3338F01092D8
:1037B000CF048091CE048F5F8093CE048091CE049D
:1037C000883158F01092CE048091CC049091CD04B1
:1037D00001969093CD048093CC048091D2048823E9
:1037E00029F08091D20481508093D2048091D10439
:1037F000882329F08091D10481508093D10481E005
:103800008093D304FF91EF91BF91AF919F918F91DE
:103810007F916F915F914F913F912F910F900FBECC
:103820000F901F901895CF93DF93CDB7DEB76397B6
:103830000FB6F894DEBF0FBECDBF82E490E00E94C9
:10384000D02A853571F544E050E06EE370E08EE1FA
:1038500095E00E94C02A8CE290E00E94D02A8093DA
:10386000430189E290E00E94D82A90934501809319
:10387000440149E150E060E170E08AE291E00E9499
:10388000C02A46E050E06AE070E086E491E00E94E1
:10389000C02A85E090E00E94D82A90931801809376
:1038A000170189E090E00E94D02A8A3A91F48BE2D5
:1038B00090E00E94D02A8093150188E090E00E9459
:1038C000D02A8093130187E090E00E94D02A809351
:1038D000140184E090E00E94D02A833351F441E146
:1038E00050E06DE270E089E191E00E94C02A109200
:1038F000290180E090E00E94D02A8C3C91F481E084
:1039000090E00E94D02A8093D40483E090E00E944B
:10391000D02A8093D60482E090E00E94D02A80933F
:10392000D5048FE290E00E940D283D9A0E94C213B8
:10393000809114010E9472138EE191E10E94AB13F9
:1039400086E491E00E94AA110E9443124AE06DEDC4
:1039500074E090E00E94832A8DE490E10E94502858
:103960008DED94E00E9441288AE490E10E94502865
:1039700086E491E00E94481480914301882321F05D
:1039800085E399E10E94D90983E999E10E943418FD
:103990001092850010928400109280008DE0809338
:1039A00081008CE1809389008FE18093880082E020
:1039B00080936F009CE088E10FB6F894A8958093FF
:1039C00060000FBE909360007894912C1A8619863F
:1039D000312C212C1B86512C0F2EFBECCF2EF4E02A
:1039E000DF2EF02D0F2EFDEDEF2EF4E0FF2EF02D4B
:1039F00066246394EA8AFB8A6894442441F803C0ED
:103A0000982C01C0982C63EA71E088E293E00E9450
:103A1000AE128C01F601108280911601813009F0FE
:103A200058C0B80183EA91E00E947B0D882309F415
:103A300050C0409216012AE135E042E155E06EE0C7
:103A400075E086E195E00E94FC0D8AE195E00E9418
:103A5000960F6EE075E086E195E00E9453140AE04F
:103A60002EE244E066E175E0C7010E94242982E469
:103A700090E10E945028C7010E9441288FE20E94D5
:103A800028288EE095E00E9477194AE0B70190E07F
:103A90000E94832AC7010E9441288FE390E10E947F
:103AA00050282EE244E06AE175E0C7010E94242913
:103AB00087E390E10E945028C7010E94412884E3D7
:103AC00090E10E9450280F2EFEE13F2EF02D212C78
:103AD0009ACFB80183EA91E00E946A0E5C0160E02F
:103AE00070E080E090E00E94440E882E9816C9F1A4
:103AF00088E191E10E94502860E070E080E090E071
:103B00000E94440E882EF2E08F17E9F0F81730F08B
:103B1000882359F021E0821789F023C083E08816BA
:103B2000B9F094E08916C9F01CC081E191E10E94CE
:103B30005028109216011092D20413C088E091E12F
:103B40000E9450280EC08EEF90E10E94502809C0BC
:103B500086EF90E10E94502804C08DEE90E10E9413
:103B60005028B50183EA91E00E9439189093A20190
:103B70008093A101009709F0FDC2A114B10409F4DA
:103B800061C0B50183EA91E00E943810B50183EA73
:103B900091E00E94BA14882309F432CF4091DC04EA
:103BA00067ED74E083EA91E00E941817882309F416
:103BB00029CF1092D3048091D7049091D804A0917A
:103BC000D904B091DA04BC01CD01725C87419C4BF1
:103BD0006093D7047093D8048093D9049093DA0447
:103BE0000E94DE09A0914401B09145012CE330E030
:103BF0000E94A8290E94EA09CE0101960E94F309B9
:103C0000CE0101960E947E09B7010E94FB08C70100
:103C10000E9441288EE290E10E945028B7018091D5
:103C20004401909145010E947A1BC7010E944128DE
:103C30008AE290E10E9450286092FE041092DB0418
:103C4000982CE1CE0E945C125816A1F00E945C12E2
:103C5000582E882349F083EE90E10E94502810925C
:103C600016011092D20407C087ED90E10E945028FF
:103C7000312C2AC0582E332039F18091D304882367
:103C800019F13A941092D3040AE02EE244E066E17E
:103C900075E0C7010E942429F70101900020E9F78F
:103CA00031978F010D5D14406EEC70E1C7010E94E9
:103CB000102A822D90E068E083529B4F0E948E1361
:103CC0002394201201C0212C8091D10481113DC088
:103CD0008AE08093D1046FE971E080EA91E00E946C
:103CE000930F8091FE04882381F18091A00190912F
:103CF0008E01981734F480938E0187E991E00E9439
:103D0000F3098091A00190911201891734F48093F6
:103D100012018BE991E00E94F30980919F0190913B
:103D20008D01981734F480938D018FE891E00E9403
:103D3000F30980919F0190911101891734F48093C8
:103D4000110183E991E00E94F3098091160181112C
:103D500021C08091D2048111DFC0552009F4DEC05A
:103D600060921601109201051092000585EC90E119
:103D70000E94AB13E6E1F5E01082118212821382F9
:103D800060E070E0CF010E94531480914B010E94CB
:103D90003D0D812C80911601823009F059C080912F
:103DA000D20481110C94A12780910005882321F071
:103DB00080910105811146C087EB90E10E94502857
:103DC00080910005811112C08AE195E00E94711472
:103DD000811103C08AE195E002C082E195E048E9E3
:103DE00059E1642D0E9420180C94802780910105D0
:103DF000811122C08EE195E00E947114811103C0EF
:103E00008EE195E002C082E195E048E959E1662D36
:103E10000E9420180C948027109216011092D20450
:103E20008091000581110C948F2719860C94A1278D
:103E300080910005882361F080910105882341F07D
:103E400001C0198683E0809316011092D20409C044
:103E500080911601833009F063C08091FF048111C5
:103E600011C085E08093D2046092FF0489EA90E15A
:103E70000E94502848E055E06AE271E083EA91E050
:103E80000E94B40F8091FF04813041F50E94A30F7E
:103E9000882321F14092FF048EE195E00E94A90F52
:103EA0000AE02EE244E06EE175E0C7010E94242999
:103EB00081EA90E10E945028C7010E9441288EE9C2
:103EC00090E10E94502884E0809316018091FF04C5
:103ED000823011F00C949827982C2DC08091FF040B
:103EE000823001F18091D20481111EC01092FF0432
:103EF0000E94A60F882321F082E990E10E945028B9
:103F0000EA85EF5FEA87E63089F410921601109295
:103F1000D204982C1A86F1C7982C09C0982C07C097
:103F2000982C05C0982C03C0982C01C0982C809127
:103F30001601843061F480914B018093DC0410926F
:103F4000D2041092FE0485E0809316010AC080918D
:103F50001601853009F0D1C78091FE04813009F443
:103F6000DAC78091D204811128C0552031F18091A7
:103F7000DB048630E0F485E08093D2048091DC0499
:103F80008F5F8093DC0484E890E10E94502828E051
:103F900035E04091DC046EE175E083EA91E00E9437
:103FA00096168091DB048F5F8093DB0406C010922D
:103FB000DB04109216011092D20431109EC780913A
:103FC000FE04882309F499C78091D304882309F457
:103FD00091C71092D304CE0101960E94F309CE013D
:103FE00001960E947E09FC018091D4048823E9F0A7
:103FF00040814A30D4F42281022E000C330B809190
:10400000D60490E02817390781F42181022E000C94
:10401000330B8091D50490E02817390731F440FD27
:1040200002C0459A03C0459801C045982091D70425
:104030003091D8044091D9045091DA0469817A8191
:104040008B819C810E947909209117013091180180
:10405000890120E030E0061717072807390744F4E4
:104060008091FE04813021F44092FE041092DB0422
:10407000FB85FF5FFB87F63038F1809113018823C1
:1040800019F180E00E94BD138091A0014AE0B701C0
:10409000082E000C990B0E94832AC7010E947F13EF
:1040A0008BE190E10E94AB1380919F014AE0B70140
:1040B000082E000C990B0E94832AC7010E947F13CF
:1040C00085E20E9445134FC0CE0101960E94F3097C
:1040D000CE0101960E947E098C0180E00E94BD13F2
:1040E000F801628180911501811103C06D3008F0E3
:1040F0006C50C7010E946A1BC7010E947F13809108
:104100001501811108C0F801808180FF04C080E2A0
:104110000E94451303C08AE30E944513F8016181A0
:10412000C7010E946A1BC7010E947F13809115017D
:1041300081110EC0F80182818C302CF487E190E16E
:104140000E94AB1310C083E190E10E94AB130BC03F
:104150008AE30E944513F8016081C7010E946A1B2F
:10416000C7010E947F13FB85FA3008F4C5C6312CC5
:104170001B86C3C68C010D551E4F08C00E942828FF
:104180000F5F1F4FF50180818A3029F05801F80137
:1041900080818111F3CF0091A1011091A201C8018A
:1041A0008D559E4F5C0144E050E06FE770E10E9446
:1041B0001B2A892B09F009C409551E4FF80180817B
:1041C0008F3209F0BBC38181803209F0C4C00E94E4
:1041D000E21960E070E00E94EB198C01CE010196BB
:1041E0000E94F30949ED5FE0BE016F5F7F4FC80198
:1041F0000E944F1A43ED5FE0BC0183EA91E00E9408
:10420000A0158C01B70180914401909145010E9455
:104210007A1BA701B80183EA91E00E94CC154DEB0F
:104220005FE06AE175E00E942E1A4AEB5FE0BC0194
:1042300083EA91E00E94A0158C010E94A60F8823BA
:1042400041F044EB5FE0B80183EA91E00E94A015E1
:1042500013C00E94A30F811108C04CEA5FE0B801AF
:1042600083EA91E00E94A01507C049EA5FE0B80127
:1042700083EA91E00E94A01543E95FE0BC0183EA74
:1042800091E00E94A0154AE251E0BC0183EA91E06E
:104290000E94CC1540E95FE06EE175E00E942E1AA5
:1042A0004BE75FE067ED74E00E944F1ABC0180911C
:1042B000FE04813039F040E75FE083EA91E00E943C
:1042C000A01506C04AE65FE083EA91E00E94A015CF
:1042D00049E55FE0BC0183EA91E00E94A0158C01F2
:1042E000C7010E949C1BA701B80183EA91E00E94CC
:1042F000CC15BC018091D404882339F04EE45FE0F2
:1043000083EA91E00E94A01506C042E45FE083EAE0
:1043100091E00E94A0156091A001062E000C770B81
:104320004CE25FE00E948E1A60919F01062E000C05
:10433000770B42E15FE00E948E1A4AE45EE0BC0126
:1043400083EA91E00E94A0150E94071A9093A201AF
:104350008093A101B2C58F3309F0F0C220E130E1B2
:1043600040E2B701C8010E946228882349F11092F7
:104370008F0110929001109291011092920110926F
:10438000930110929401109295011092960110924F
:104390009701109298011092990110929A0110922F
:1043A0009B0110929C0110929D0110929E01FFE7CB
:1043B000F0931201F093110110928E0110928D0171
:1043C0002DE030E140E2B701C8010E946228882355
:1043D00009F4B4C2C7010E94E928C7010E94D2298A
:1043E0008330910509F4FAC03CF48130910571F0F5
:1043F000029709F46FC0A2C28530910509F447C243
:104400000CF443C1069709F462C298C2C8010E9425
:10441000C91A882309F457C00E94E21962E77DE0B7
:104420000E94EB194BE05DE0BC0183EA91E00E9441
:10443000A0154AE251E0BC0183EA91E00E94CC154C
:10444000609117017091180143ED5CE00E948E1A93
:104450004DE95CE066E471E00E946D1A48E65CE0BC
:10446000BC0183EA91E00E94A0158C01B701809104
:104470004401909145010E947A1BA701B80183EA8B
:1044800091E00E94CC1544E25CE0BC0183EA91E03B
:104490000E94A01520914301222339F04BE15CE0FA
:1044A000BC0183EA91E00E94A01543EA5BE0BC01F5
:1044B00083EA91E00E94A0150E94071A9093A2013E
:1044C0008093A101FAC40E940F1A9093A2018093D5
:1044D000A101F3C40E94E21960E070E00E94EB19B0
:1044E00045E45BE0BC0183EA91E00E94A0152091C5
:1044F0001501222339F04CE35BE0BC0183EA91E033
:104500000E94A0154AE15BE0BC0183EA91E00E94B1
:10451000A01520911301222339F041E15BE0BC0199
:1045200083EA91E00E94A01541EE5AE0BC0183EAC3
:1045300091E00E94A0150F2EF7E2AF2EF1E1BF2E01
:10454000F02D912C082D192D42ED5AE0BC0183EA83
:1045500091E00E94A01520E3210FF7012083118232
:104560004A895B89BC0183EA91E00E94CC154C0129
:1045700080911401811308C048EC5AE0B40183EA29
:1045800091E00E94A0154C0142E050E0B501CE013F
:1045900001960E94072A49815A81B40183EA91E079
:1045A0000E94A0154EEB5AE0BC0183EA91E00E9404
:1045B000A0151F5FF2E0AF0EB11C183029F6802E57
:1045C00044E45AE0BC0183EA91E00E94A0150E94F5
:1045D000071A9093A2018093A1016FC40E94E2196F
:1045E00060E070E00E94EB1943E15AE0BC0183EA0D
:1045F00091E00E94A01560918E01062E000C770BB1
:1046000046EF59E00E948E1A4BEE59E067E971E0DF
:104610000E944F1A60911201062E000C770B4EEC8F
:1046200059E00E948E1A43EC59E06BE971E00E9458
:104630004F1A60918D01062E000C770B48EA59E065
:104640000E948E1A41EA59E06FE871E00E944F1A09
:1046500060911101062E000C770B47E859E00E948B
:104660008E1A40E859E063E971E00E944F1A44EF66
:1046700058E0BC0183EA91E00E94A0150E94071A4D
:104680009093A2018093A10118C40E94E21960E0F6
:1046900070E00E94EB198C010E944312682F70E0B9
:1046A0004BEC58E0C8010E948E1A45EB58E066E4D6
:1046B00071E00E946D1A40EA58E066E175E00E94E0
:1046C0002E1A8C012FE2F70120838EE095E00E94E4
:1046D00077194AE06EED74E090E00E94832AA7010A
:1046E000B80183EA91E00E94CC154EE858E062E1FF
:1046F00075E00E942E1A8C018EE195E00E947114E3
:1047000081110FC04CE758E068E075E0C8010E94D5
:104710006D1A8C018AE195E00E947114811114C018
:1047200013C48AE195E00E947114811112C04AE617
:1047300058E062E075E0C8010E946D1A8C0188E0C3
:1047400095E0682F792F09C0E2E0F5E06E2F7F2F0A
:1047500004C082E095E0682F792F44E558E0C80155
:104760000E946D1A60911701709118014CE358E096
:104770000E948E1A8C01BE016F5F7F4FCE0105969D
:104780000E94440E4EE158E0BE016B5F7F4FC801AE
:104790000E942E1A8C0169817A818B819C812CE385
:1047A00030E040E050E00E948629CA01B90149E0AA
:1047B00058E0C8010E948E1A4FEE57E0BC0183EA10
:1047C00091E00E94A0152091CC043091CD04232BC0
:1047D00041F06091CC047091CD0447EE57E00E9407
:1047E000AB1A2091CE04222339F06091CE0470E000
:1047F0004EED57E00E94AB1A2091CF04222339F0EE
:104800006091CF0470E043ED57E00E94AB1A6091D5
:10481000D00470E044EB57E00E94AB1A2091BF0532
:1048200020FF08C04BEA57E0BC0183EA91E00E94F8
:10483000A0151FC021FF07C041EA57E0BC0183EA71
:1048400091E00E94A0152091BF0522FF07C046E914
:1048500057E0BC0183EA91E00E94A0152091BF05BA
:1048600023FF07C046E857E0BC0183EA91E00E94BD
:10487000A0154FE457E0BC0183EA91E00E94A01527
:104880000E94071A9093A2018093A10116C3C80148
:104890000E94C91A8823A1F00E94E21960E070E02A
:1048A0000E94EB1949E656E0BC0183EA91E00E94C0
:1048B000A0150E94071A9093A2018093A101FDC246
:1048C0000E940F1A9093A2018093A101F6C20E9448
:1048D000E21960E070E00E94EB194FE655E0BC0180
:1048E00083EA91E00E94A0158C01C7010E949C1BE5
:1048F000A701B80183EA91E00E94CC1541E455E09C
:10490000BC0183EA91E00E94A0152091D4042223E7
:1049100039F048E355E0BC0183EA91E00E94A0151C
:104920004FEB54E0BC0183EA91E00E94A0150E9485
:10493000071A9093A2018093A101BFC246E050E004
:1049400066E070E1C8010E941B2A892BA1F440E5B2
:1049500053E060E070E083EA91E00E94A0154CE82B
:1049600053E0BC0183EA91E00E94A0159093A2015C
:104970008093A101A2C246E050E06FEF7FE0C80142
:104980000E941B2A892BA1F44DEE51E060E070E0FB
:1049900083EA91E00E94A01549E152E0BC0183EA5C
:1049A00091E00E94A0159093A2018093A10185C27D
:1049B00049EB51E060E070E083EA91E00E94A015CD
:1049C0009093A2018093A10178C245E050E069E78D
:1049D00070E1C5010E941B2A892B09F062C20855AB
:1049E0001E4F64EB71E0C8010E94292A009709F468
:1049F0004BC25C01E4E0AE0EB11CC5010E9441282F
:104A000081EB91E00E94502843E050E06DEA71E0B4
:104A1000C8010E941B2A892B49F52AEA31E040E2AD
:104A2000B701C5010E9462288823C9F0C7010E940E
:104A3000E92840E150E0B70189E191E00E94692A4C
:104A40001092290163E384E090E00E94E82A41E1AA
:104A500050E06DE270E089E191E00E94DE2A0E9460
:104A6000251A9093A2018093A10127C243E050E050
:104A700066EA71E0C8010E941B2A892B09F049C02F
:104A80001092D40423EA31E040E2B701C5010E944C
:104A9000622881116092D40420EA31E040E2B7013B
:104AA000C5010E9462288823B1F0C7010E94E9284D
:104AB000C7010E94D2298093D6046AE370E0C7013F
:104AC0000E94502A009739F0FC011192CF010E94F8
:104AD000D2298093D5046CEC80E090E00E94E82A13
:104AE0006091D40481E090E00E94E82A6091D604AD
:104AF00083E090E00E94E82A6091D50482E090E093
:104B00000E94E82A0E94251A9093A2018093A10195
:104B1000D4C143E050E06CE971E0C8010E941B2A57
:104B2000892B09F049C01092150129E931E040E2D2
:104B3000B701C5010E94622881116092150110928F
:104B4000130126E931E040E2B701C5010E94622865
:104B500081116092130123E931E040E2B701C50100
:104B60000E946228882351F0C7010E94E928C701EA
:104B70000E94D229809314010E9472136AEA89E08C
:104B800090E00E94E82A609115018BE290E00E947B
:104B9000E82A6091130188E090E00E94E82A609181
:104BA000140187E090E00E94E82A0E94251A909361
:104BB000A2018093A10181C143E050E06FE871E060
:104BC000C8010E941B2A892B09F05EC12CE831E044
:104BD00040E2B701C5010E946228882309F46AC037
:104BE000C7010E94E928E6E4F1E0108211821282F6
:104BF000138214821582F7010081002309F44CC04E
:104C0000712CF98AE88ADD86CC86FF86EE86F52C43
:104C1000582C4F0110E0C8010E94F329892B49F15B
:104C2000C8010E94FF298A3308F087500F2EF0ED4B
:104C3000DF2EF02DD80E84010F5F1F4FF40181800D
:104C4000912CC4010E94F329892B61F0C4010E94B8
:104C5000FF298A3308F087509D2D9295907F8053CD
:104C6000D82ED92AE72DF0E0EA5BFE4FD08273946C
:104C700001C084014801FFEF8F1A9F0AF8010181EA
:104C8000002361F0F5E0F71528F6852C5F2CCC8425
:104C9000DD84EE84FF8408C0712C06C0852C5F2C57
:104CA000CC84DD84EE84FF84162D26E0721203C0CE
:104CB00010E001C010E029E831E040E2B701C50191
:104CC0000E9462288823B1F0C7010E94E92848E1C8
:104CD00050E0B7018AE291E00E94692A10924201F5
:104CE000F70101900020E9F73197ED5DF4407997E5
:104CF00008F0162D26E831E040E2B701C5010E9418
:104D00006228882351F0C7010E94E928C7010E9448
:104D1000D22990931801809317011092430180E0EB
:104D200090E00E94D90923E831E040E2B701C501D3
:104D30000E946228882331F06092430185E399E163
:104D40000E94D90920E831E040E2B701C5010E9484
:104D50006228882381F1C7010E94E928C7010E94C7
:104D6000D229082F6AE370E0C7010E94502A0097F9
:104D700031F0FC011192CF010E94D22901C080E0E4
:104D80002CE30203D001112400231CF4A81BB10959
:104D900002C0A80FB11DCD0180539D4F89319640AF
:104DA00060F4B0934501A09344012CE330E00E94ED
:104DB000A8290E94EA091123A1F00E94E21960E0EB
:104DC00070E00E94EB1948E251E0BC0183EA91E0F7
:104DD0000E94A0150E94071A9093A2018093A1013E
:104DE0006CC065E582E490E00E94E82A44E050E06F
:104DF0006EE370E08EE195E00E94DE2A609143014F
:104E00008CE290E00E94E82A609144017091450193
:104E100089E290E00E94F62A49E150E060E170E00A
:104E20008AE291E00E94DE2A46E050E06AE070E00B
:104E300086E491E00E94DE2A6091170170911801CA
:104E400085E090E00E94F62A0E94E21960E070E09E
:104E50000E94EB1948E051E0BC0183EA91E00E9416
:104E6000A0150E94071A9093A2018093A1011092AD
:104E700016011092D20486E491E00E948C1186E41F
:104E800091E00E94481419C048EC50E060E070E0E6
:104E900083EA91E00E94A0159093A2018093A10162
:104EA0000CC04EE850E060E070E083EA91E00E94C0
:104EB000A0159093A2018093A1018EE690E10E943B
:104EC00050284AE0B7018091A1019091A2010E946F
:104ED000832AC7010E9441288BE690E10E94502856
:104EE0006091A1017091A20183EA91E00E94701685
:104EF000982C03C0312C01C0312CA8950C94031DB3
:104F00004092D204F985FF5FF987FF3011F00C94CD
:104F1000181F0C940C1F332009F456C8EECF809153
:104F2000010581110C94211F982C19860C94971F50
:104F30008091D204882311F40C94761F982C0C9441
:104F40009B1F982C0C94A71F4AE658E062E075E07E
:104F5000C8010E946D1A06CC1F920F920FB60F92D5
:104F600011242F933F934F935F938F939F93EF93CE
:104F7000FF932091C0003091C600287180912405D4
:104F800090E001968F7399274091230550E0841794
:104F9000950739F080932405FC01E95DFA4F3083D1
:104FA00001C022E020932205FF91EF919F918F9104
:104FB0005F914F913F912F910F900FBE0F901F90D7
:104FC00018951F920F920FB60F9211248F939F93F3
:104FD000EF93FF939091260580912505981779F01E
:104FE0008091250590E001968F7399278093250580
:104FF000FC01E959FA4F80818093C60005C0E1ECBD
:10500000F0E080818F7D8083FF91EF919F918F9160
:105010000F900FBE0F901F901895F89410922605D0
:105020001092250510922405109223057894992357
:1050300024F422E02093C0009F779093C5008093D2
:10504000C40088E98093C10086E08093C20008957F
:105050004091260550E04F5F5F4F4F7355272091D9
:10506000250530E042175307D1F3FA01E959FA4F09
:10507000808340932605E1ECF0E0808180628083AC
:105080000895CF93DF93EC018881882331F0219636
:105090000E94282889918111FBCFDF91CF9108953B
:1050A000CF93DF93EC012196FC018491882339F0A2
:1050B0000E942828FE01849121968111F9CFDF9169
:1050C000CF910895EF92FF920F931F93CF93DF93A9
:1050D0007C018901FC019081892F8F7D09F458C0E2
:1050E0009D3009F457C0F901E70120E051E0349107
:1050F00039131AC00E171F0751F4DE0111978C9156
:105100008F3329F0863219F0EC16FD0689F43196BA
:105110008491811111C0DE011196852F99819D33F3
:1051200009F0822FF8010AC0F801DE01822F06C0C3
:10513000F801DE01822F02C0DE01822FED012196EF
:1051400011969C911197992339F1903289F19D30F4
:1051500031F1882361F229C050E041505109141601
:1051600015069CF4FB01129620E091932F5FBF017E
:105170009D91392F3F7D49F09D3039F0963229F0CD
:10518000C22FD0E0C417D50784F3FB01108212C0F0
:1051900080E010C080E00EC0813061F4F6CF813035
:1051A00049F4F3CF9632C1F6F0CF8130D9F302C083
:1051B000813059F3DF91CF911F910F91FF90EF90C4
:1051C00008958A3308F0875090E00E94FF298053A9
:1051D0000895DF92EF92FF920F931F93CF93DF9387
:1051E0007C01FC018081882329F1E7018B32A1F049
:1051F0008532A9F487010E5F1F4FF70181810E945C
:10520000E128D82EF70182810E94E128F0E1DF9E9B
:1052100090011124822B04C0870180E201C0870124
:10522000899378018FEFE81AF80AF80181818111DA
:10523000DDCF01C0E7011882DF91CF911F910F915F
:10524000FF90EF90DF9008958F929F92AF92BF9260
:10525000CF92DF92EF92FF920F931F93CF93DF9342
:105260007C01D22F442359F16B014150842F90E0EF
:1052700001965B01A80EB91EC0E0802E912C87011B
:105280000C0F111DF60181916F01A401B80190E08E
:105290000E94782AF8018081882341F0CF5F87013E
:1052A0000C0F111DF80180818111F8CFDD2319F059
:1052B000F801D083CF5FCA14DB0409F701C0C0E056
:1052C000C150F701EC0FF11D1082DF91CF911F91BA
:1052D0000F91FF90EF90DF90CF90BF90AF909F9095
:1052E0008F90089597FB072E16F4009407D077FD52
:1052F00009D00E94AF2907FC05D03EF49095819516
:105300009F4F0895709561957F4F0895A1E21A2EE1
:10531000AA1BBB1BFD010DC0AA1FBB1FEE1FFF1F59
:10532000A217B307E407F50720F0A21BB30BE40BA9
:10533000F50B661F771F881F991F1A9469F76095F0
:105340007095809590959B01AC01BD01CF010895AA
:105350000E94C329B7FF0895821B930B0895AA1BCF
:10536000BB1B51E107C0AA1FBB1FA617B70710F050
:10537000A61BB70B881F991F5A95A9F78095909582
:10538000BC01CD010895A29FB001B39FC001A39FAE
:10539000700D811D1124911DB29F700D811D11246E
:1053A000911D0895FC0188279927E89421912032C6
:1053B000E9F3293010F02E30C8F32B3241F02D32B2
:1053C00039F4689404C00E948E2A820F911D2191A5
:1053D00020532A30C0F31EF4909581959F4F089575
:1053E00099278827089591110C94F02980538A50A9
:1053F00028F0865C806281568650B0F7089591113E
:10540000089581568A5108F4805285580895FB0109
:10541000DC0102C005900D9241505040D8F708952C
:10542000FB01DC010D900020E9F7119705900D922A
:105430000020E1F70895FB01DC014150504030F0BD
:105440008D910590801919F40020B9F7881B990BEC
:105450000895FB0155915523A9F0BF01DC014D9141
:1054600045174111E1F759F4CD010590002049F0AD
:105470004D9140154111C9F3FB014111EFCF81E07E
:1054800090E001970895FB01DC0104C08D9101902B
:10549000801921F441505040C8F7881B990B08959A
:1054A000FC018191861721F08823D9F79927089567
:1054B0003197CF010895FB01DC014150504030F09D
:1054C0008D910190801919F40020B9F7881B990B70
:1054D0000895FB01DC014150504048F001900D92CD
:1054E0000020C9F701C01D9241505040E0F70895D7
:1054F0004532510520F4423010F00C94832AFB0110
:105500001082CB010895BB274A3031F4992322F44D
:10551000BDE2909581959F4F0C94972A7AE0979FD2
:10552000902D879F802D910D11240895BB27FB019D
:105530005527AA27880F991FAA1FA41710F0A41B8C
:1055400083955051B9F7A05DAA3308F0A95DA193E6
:10555000009779F7B111B1931192CB010C94B02A55
:10556000DC01FC01672F71917723E1F7329704C0CA
:105570007C916D9370836291AE17BF07C8F3089555
:10558000DC01CB01FC01F999FECF06C0F2BDE1BD03
:10559000F89A319600B40D9241505040B8F70895F2
:1055A000F999FECF92BD81BDF89A992780B50895EB
:1055B000A8E1B0E042E050E00C94C22ADC01CB014B
:1055C00003C02D910E94E92A41505040D0F7089520
:1055D000262FF999FECF1FBA92BD81BD20BD0FB60F
:1055E000F894FA9AF99A0FBE019608950E94E82A53
:1055F000272F0C94E92A052E97FB1EF400940E9495
:10560000122B57FD07D00E94862907FC03D04EF4C9
:105610000C94122B50954095309521953F4F4F4F4C
:105620005F4F089590958095709561957F4F8F4F4E
:105630009F4F08952F923F924F925F926F927F9269
:105640008F929F92AF92BF92CF92DF92EF92FF9292
:105650000F931F93CF93DF93CDB7DEB7CA1BDB0B3E
:105660000FB6F894DEBF0FBECDBF09942A883988E3
:1056700048885F846E847D848C849B84AA84B984EA
:10568000C884DF80EE80FD800C811B81AA81B981F6
:10569000CE0FD11D0FB6F894DEBF0FBECDBFED010A
:0656A0000895F894FFCF0D
:1056A600FFFFFFFF0808080802FFFFFFFF50010089
:1056B6000A7F7F010401FF100E7365637265740033
:1056C6000000000000000000000074696D652E6196
:1056D60070706C652E636F6D0000000000000000A6
:1056E600000000013C005410EC002860FFFFFFFFA3
:0256F600FFFFB4
:00000001FF
